{
  "address": "0x21d782563024cD546bc97b0002e959619C7E98dB",
  "abi": [
    {
      "inputs": [],
      "stateMutability": "nonpayable",
      "type": "constructor"
    },
    {
      "anonymous": false,
      "inputs": [
        {
          "indexed": true,
          "internalType": "address",
          "name": "owner",
          "type": "address"
        },
        {
          "indexed": true,
          "internalType": "address",
          "name": "approved",
          "type": "address"
        },
        {
          "indexed": true,
          "internalType": "uint256",
          "name": "tokenId",
          "type": "uint256"
        }
      ],
      "name": "Approval",
      "type": "event"
    },
    {
      "anonymous": false,
      "inputs": [
        {
          "indexed": true,
          "internalType": "address",
          "name": "owner",
          "type": "address"
        },
        {
          "indexed": true,
          "internalType": "address",
          "name": "operator",
          "type": "address"
        },
        {
          "indexed": false,
          "internalType": "bool",
          "name": "approved",
          "type": "bool"
        }
      ],
      "name": "ApprovalForAll",
      "type": "event"
    },
    {
      "anonymous": false,
      "inputs": [
        {
          "indexed": true,
          "internalType": "bytes32",
          "name": "role",
          "type": "bytes32"
        },
        {
          "indexed": true,
          "internalType": "bytes32",
          "name": "previousAdminRole",
          "type": "bytes32"
        },
        {
          "indexed": true,
          "internalType": "bytes32",
          "name": "newAdminRole",
          "type": "bytes32"
        }
      ],
      "name": "RoleAdminChanged",
      "type": "event"
    },
    {
      "anonymous": false,
      "inputs": [
        {
          "indexed": true,
          "internalType": "bytes32",
          "name": "role",
          "type": "bytes32"
        },
        {
          "indexed": true,
          "internalType": "address",
          "name": "account",
          "type": "address"
        },
        {
          "indexed": true,
          "internalType": "address",
          "name": "sender",
          "type": "address"
        }
      ],
      "name": "RoleGranted",
      "type": "event"
    },
    {
      "anonymous": false,
      "inputs": [
        {
          "indexed": true,
          "internalType": "bytes32",
          "name": "role",
          "type": "bytes32"
        },
        {
          "indexed": true,
          "internalType": "address",
          "name": "account",
          "type": "address"
        },
        {
          "indexed": true,
          "internalType": "address",
          "name": "sender",
          "type": "address"
        }
      ],
      "name": "RoleRevoked",
      "type": "event"
    },
    {
      "anonymous": false,
      "inputs": [
        {
          "indexed": true,
          "internalType": "address",
          "name": "from",
          "type": "address"
        },
        {
          "indexed": true,
          "internalType": "address",
          "name": "to",
          "type": "address"
        },
        {
          "indexed": true,
          "internalType": "uint256",
          "name": "tokenId",
          "type": "uint256"
        }
      ],
      "name": "Transfer",
      "type": "event"
    },
    {
      "inputs": [],
      "name": "DEFAULT_ADMIN_ROLE",
      "outputs": [
        {
          "internalType": "bytes32",
          "name": "",
          "type": "bytes32"
        }
      ],
      "stateMutability": "view",
      "type": "function"
    },
    {
      "inputs": [],
      "name": "USER_ROLE",
      "outputs": [
        {
          "internalType": "bytes32",
          "name": "",
          "type": "bytes32"
        }
      ],
      "stateMutability": "view",
      "type": "function"
    },
    {
      "inputs": [
        {
          "internalType": "address",
          "name": "to",
          "type": "address"
        },
        {
          "internalType": "uint256",
          "name": "tokenId",
          "type": "uint256"
        }
      ],
      "name": "approve",
      "outputs": [],
      "stateMutability": "nonpayable",
      "type": "function"
    },
    {
      "inputs": [
        {
          "internalType": "address",
          "name": "owner",
          "type": "address"
        }
      ],
      "name": "balanceOf",
      "outputs": [
        {
          "internalType": "uint256",
          "name": "",
          "type": "uint256"
        }
      ],
      "stateMutability": "view",
      "type": "function"
    },
    {
      "inputs": [
        {
          "internalType": "uint256",
          "name": "tokenId",
          "type": "uint256"
        }
      ],
      "name": "burn",
      "outputs": [],
      "stateMutability": "nonpayable",
      "type": "function"
    },
    {
      "inputs": [
        {
          "internalType": "uint256[]",
          "name": "tokenIds",
          "type": "uint256[]"
        }
      ],
      "name": "decrypt",
      "outputs": [],
      "stateMutability": "payable",
      "type": "function"
    },
    {
      "inputs": [
        {
          "internalType": "uint256",
          "name": "tokenId",
          "type": "uint256"
        }
      ],
      "name": "getApproved",
      "outputs": [
        {
          "internalType": "address",
          "name": "",
          "type": "address"
        }
      ],
      "stateMutability": "view",
      "type": "function"
    },
    {
      "inputs": [
        {
          "internalType": "uint256",
          "name": "tokenId",
          "type": "uint256"
        }
      ],
      "name": "getIsTokenDecrypted",
      "outputs": [
        {
          "internalType": "bool",
          "name": "",
          "type": "bool"
        }
      ],
      "stateMutability": "view",
      "type": "function"
    },
    {
      "inputs": [
        {
          "internalType": "bytes32",
          "name": "role",
          "type": "bytes32"
        }
      ],
      "name": "getRoleAdmin",
      "outputs": [
        {
          "internalType": "bytes32",
          "name": "",
          "type": "bytes32"
        }
      ],
      "stateMutability": "view",
      "type": "function"
    },
    {
      "inputs": [
        {
          "internalType": "uint256",
          "name": "tokenId",
          "type": "uint256"
        }
      ],
      "name": "getTokenInfo",
      "outputs": [
        {
          "components": [
            {
              "internalType": "uint256",
              "name": "id",
              "type": "uint256"
            },
            {
              "internalType": "string",
              "name": "cid",
              "type": "string"
            },
            {
              "internalType": "address",
              "name": "owner",
              "type": "address"
            },
            {
              "internalType": "bool",
              "name": "isDecrypted",
              "type": "bool"
            },
            {
              "internalType": "uint256",
              "name": "price",
              "type": "uint256"
            }
          ],
          "internalType": "struct Basic_FEVM_DALN.TokenInfo",
          "name": "",
          "type": "tuple"
        }
      ],
      "stateMutability": "view",
      "type": "function"
    },
    {
      "inputs": [
        {
          "internalType": "uint256",
          "name": "_cursor",
          "type": "uint256"
        },
        {
          "internalType": "uint256",
          "name": "_pageSize",
          "type": "uint256"
        }
      ],
      "name": "getTokenInfos",
      "outputs": [
        {
          "components": [
            {
              "internalType": "uint256",
              "name": "id",
              "type": "uint256"
            },
            {
              "internalType": "string",
              "name": "cid",
              "type": "string"
            },
            {
              "internalType": "address",
              "name": "owner",
              "type": "address"
            },
            {
              "internalType": "bool",
              "name": "isDecrypted",
              "type": "bool"
            },
            {
              "internalType": "uint256",
              "name": "price",
              "type": "uint256"
            }
          ],
          "internalType": "struct Basic_FEVM_DALN.TokenInfo[]",
          "name": "",
          "type": "tuple[]"
        },
        {
          "internalType": "uint256",
          "name": "_nextCursor",
          "type": "uint256"
        },
        {
          "internalType": "bool",
          "name": "_hasMore",
          "type": "bool"
        }
      ],
      "stateMutability": "view",
      "type": "function"
    },
    {
      "inputs": [
        {
          "internalType": "bytes32",
          "name": "role",
          "type": "bytes32"
        },
        {
          "internalType": "address",
          "name": "account",
          "type": "address"
        }
      ],
      "name": "grantRole",
      "outputs": [],
      "stateMutability": "nonpayable",
      "type": "function"
    },
    {
      "inputs": [
        {
          "internalType": "bytes32",
          "name": "role",
          "type": "bytes32"
        },
        {
          "internalType": "address",
          "name": "account",
          "type": "address"
        }
      ],
      "name": "hasRole",
      "outputs": [
        {
          "internalType": "bool",
          "name": "",
          "type": "bool"
        }
      ],
      "stateMutability": "view",
      "type": "function"
    },
    {
      "inputs": [
        {
          "internalType": "address",
          "name": "account",
          "type": "address"
        }
      ],
      "name": "isAdmin",
      "outputs": [
        {
          "internalType": "bool",
          "name": "",
          "type": "bool"
        }
      ],
      "stateMutability": "view",
      "type": "function"
    },
    {
      "inputs": [
        {
          "internalType": "address",
          "name": "owner",
          "type": "address"
        },
        {
          "internalType": "address",
          "name": "operator",
          "type": "address"
        }
      ],
      "name": "isApprovedForAll",
      "outputs": [
        {
          "internalType": "bool",
          "name": "",
          "type": "bool"
        }
      ],
      "stateMutability": "view",
      "type": "function"
    },
    {
      "inputs": [],
      "name": "name",
      "outputs": [
        {
          "internalType": "string",
          "name": "",
          "type": "string"
        }
      ],
      "stateMutability": "view",
      "type": "function"
    },
    {
      "inputs": [
        {
          "internalType": "uint256",
          "name": "tokenId",
          "type": "uint256"
        }
      ],
      "name": "ownerOf",
      "outputs": [
        {
          "internalType": "address",
          "name": "",
          "type": "address"
        }
      ],
      "stateMutability": "view",
      "type": "function"
    },
    {
      "inputs": [
        {
          "internalType": "bytes32",
          "name": "role",
          "type": "bytes32"
        },
        {
          "internalType": "address",
          "name": "account",
          "type": "address"
        }
      ],
      "name": "renounceRole",
      "outputs": [],
      "stateMutability": "nonpayable",
      "type": "function"
    },
    {
      "inputs": [
        {
          "internalType": "bytes32",
          "name": "role",
          "type": "bytes32"
        },
        {
          "internalType": "address",
          "name": "account",
          "type": "address"
        }
      ],
      "name": "revokeRole",
      "outputs": [],
      "stateMutability": "nonpayable",
      "type": "function"
    },
    {
      "inputs": [
        {
          "internalType": "string",
          "name": "cid",
          "type": "string"
        }
      ],
      "name": "safeMint",
      "outputs": [],
      "stateMutability": "nonpayable",
      "type": "function"
    },
    {
      "inputs": [
        {
          "internalType": "address",
          "name": "from",
          "type": "address"
        },
        {
          "internalType": "address",
          "name": "to",
          "type": "address"
        },
        {
          "internalType": "uint256",
          "name": "tokenId",
          "type": "uint256"
        }
      ],
      "name": "safeTransferFrom",
      "outputs": [],
      "stateMutability": "nonpayable",
      "type": "function"
    },
    {
      "inputs": [
        {
          "internalType": "address",
          "name": "from",
          "type": "address"
        },
        {
          "internalType": "address",
          "name": "to",
          "type": "address"
        },
        {
          "internalType": "uint256",
          "name": "tokenId",
          "type": "uint256"
        },
        {
          "internalType": "bytes",
          "name": "data",
          "type": "bytes"
        }
      ],
      "name": "safeTransferFrom",
      "outputs": [],
      "stateMutability": "nonpayable",
      "type": "function"
    },
    {
      "inputs": [
        {
          "internalType": "address",
          "name": "operator",
          "type": "address"
        },
        {
          "internalType": "bool",
          "name": "approved",
          "type": "bool"
        }
      ],
      "name": "setApprovalForAll",
      "outputs": [],
      "stateMutability": "nonpayable",
      "type": "function"
    },
    {
      "inputs": [
        {
          "internalType": "bytes4",
          "name": "interfaceId",
          "type": "bytes4"
        }
      ],
      "name": "supportsInterface",
      "outputs": [
        {
          "internalType": "bool",
          "name": "",
          "type": "bool"
        }
      ],
      "stateMutability": "view",
      "type": "function"
    },
    {
      "inputs": [],
      "name": "symbol",
      "outputs": [
        {
          "internalType": "string",
          "name": "",
          "type": "string"
        }
      ],
      "stateMutability": "view",
      "type": "function"
    },
    {
      "inputs": [
        {
          "internalType": "uint256",
          "name": "index",
          "type": "uint256"
        }
      ],
      "name": "tokenByIndex",
      "outputs": [
        {
          "internalType": "uint256",
          "name": "",
          "type": "uint256"
        }
      ],
      "stateMutability": "view",
      "type": "function"
    },
    {
      "inputs": [
        {
          "internalType": "address",
          "name": "owner",
          "type": "address"
        },
        {
          "internalType": "uint256",
          "name": "index",
          "type": "uint256"
        }
      ],
      "name": "tokenOfOwnerByIndex",
      "outputs": [
        {
          "internalType": "uint256",
          "name": "",
          "type": "uint256"
        }
      ],
      "stateMutability": "view",
      "type": "function"
    },
    {
      "inputs": [
        {
          "internalType": "uint256",
          "name": "tokenId",
          "type": "uint256"
        }
      ],
      "name": "tokenURI",
      "outputs": [
        {
          "internalType": "string",
          "name": "",
          "type": "string"
        }
      ],
      "stateMutability": "view",
      "type": "function"
    },
    {
      "inputs": [],
      "name": "totalSupply",
      "outputs": [
        {
          "internalType": "uint256",
          "name": "",
          "type": "uint256"
        }
      ],
      "stateMutability": "view",
      "type": "function"
    },
    {
      "inputs": [
        {
          "internalType": "address",
          "name": "from",
          "type": "address"
        },
        {
          "internalType": "address",
          "name": "to",
          "type": "address"
        },
        {
          "internalType": "uint256",
          "name": "tokenId",
          "type": "uint256"
        }
      ],
      "name": "transferFrom",
      "outputs": [],
      "stateMutability": "nonpayable",
      "type": "function"
    }
  ],
  "transactionHash": "0x3a569dc52fa98178e2d1e4b5fc7a2775713b89e1c41babf8ddeb4b46485994c4",
  "args": [],
  "numDeployments": 3,
  "solcInputHash": "977b6972df298b7581b3c545011605c2",
  "bytecode": "0x60806040523480156200001157600080fd5b506040518060400160405280600f81526020017f42617369635f4645564d5f44414c4e00000000000000000000000000000000008152506040518060400160405280600481526020017f44414c4e0000000000000000000000000000000000000000000000000000000081525081600090816200008f91906200057c565b508060019081620000a191906200057c565b505050620000c86000801b620000bc6200010360201b60201c565b6200010b60201b60201c565b620000fd7f2db9fd3d099848027c2383d0a083396f6c41510d7acfd92adc99b6cffcf31e966000801b6200012160201b60201c565b62000663565b600033905090565b6200011d82826200018560201b60201c565b5050565b600062000134836200027760201b60201c565b905081600a6000858152602001908152602001600020600101819055508181847fbd79b86ffe0ab8e8776151514217cd7cacd52c909f66475c3af44e129f0b00ff60405160405180910390a4505050565b6200019782826200029760201b60201c565b62000273576001600a600084815260200190815260200160002060000160008373ffffffffffffffffffffffffffffffffffffffff1673ffffffffffffffffffffffffffffffffffffffff16815260200190815260200160002060006101000a81548160ff021916908315150217905550620002186200010360201b60201c565b73ffffffffffffffffffffffffffffffffffffffff168173ffffffffffffffffffffffffffffffffffffffff16837f2f8788117e7eff1d82e926ec794901d17c78024a50270940304540a733656f0d60405160405180910390a45b5050565b6000600a6000838152602001908152602001600020600101549050919050565b6000600a600084815260200190815260200160002060000160008373ffffffffffffffffffffffffffffffffffffffff1673ffffffffffffffffffffffffffffffffffffffff16815260200190815260200160002060009054906101000a900460ff16905092915050565b600081519050919050565b7f4e487b7100000000000000000000000000000000000000000000000000000000600052604160045260246000fd5b7f4e487b7100000000000000000000000000000000000000000000000000000000600052602260045260246000fd5b600060028204905060018216806200038457607f821691505b6020821081036200039a57620003996200033c565b5b50919050565b60008190508160005260206000209050919050565b60006020601f8301049050919050565b600082821b905092915050565b600060088302620004047fffffffffffffffffffffffffffffffffffffffffffffffffffffffffffffffff82620003c5565b620004108683620003c5565b95508019841693508086168417925050509392505050565b6000819050919050565b6000819050919050565b60006200045d62000457620004518462000428565b62000432565b62000428565b9050919050565b6000819050919050565b62000479836200043c565b62000491620004888262000464565b848454620003d2565b825550505050565b600090565b620004a862000499565b620004b58184846200046e565b505050565b5b81811015620004dd57620004d16000826200049e565b600181019050620004bb565b5050565b601f8211156200052c57620004f681620003a0565b6200050184620003b5565b8101602085101562000511578190505b620005296200052085620003b5565b830182620004ba565b50505b505050565b600082821c905092915050565b6000620005516000198460080262000531565b1980831691505092915050565b60006200056c83836200053e565b9150826002028217905092915050565b620005878262000302565b67ffffffffffffffff811115620005a357620005a26200030d565b5b620005af82546200036b565b620005bc828285620004e1565b600060209050601f831160018114620005f45760008415620005df578287015190505b620005eb85826200055e565b8655506200065b565b601f1984166200060486620003a0565b60005b828110156200062e5784890151825560018201915060208501945060208101905062000607565b868310156200064e57848901516200064a601f8916826200053e565b8355505b6001600288020188555050505b505050505050565b61578080620006736000396000f3fe6080604052600436106101cd5760003560e01c80634f6ccce7116100f7578063a217fddf11610095578063c87b56dd11610064578063c87b56dd146106d7578063cbfa57b814610714578063d547741f14610751578063e985e9c51461077a576101cd565b8063a217fddf1461061b578063a22cb46514610646578063b88d4fde1461066f578063c32fc43c14610698576101cd565b806370a08231116100d157806370a08231146105395780638c7a63ae1461057657806391d14854146105b357806395d89b41146105f0576101cd565b80634f6ccce7146104965780636352211e146104d3578063695850fb14610510576101cd565b8063248a9ca31161016f57806336568abe1161013e57806336568abe146103ff5780633960f7871461042857806342842e0e1461044457806342966c681461046d576101cd565b8063248a9ca31461031f57806324d7806c1461035c5780632f2ff15d146103995780632f745c59146103c2576101cd565b8063095ea7b3116101ab578063095ea7b31461027757806313119161146102a057806318160ddd146102cb57806323b872dd146102f6576101cd565b806301ffc9a7146101d257806306fdde031461020f578063081812fc1461023a575b600080fd5b3480156101de57600080fd5b506101f960048036038101906101f4919061390b565b6107b7565b6040516102069190613953565b60405180910390f35b34801561021b57600080fd5b506102246107c9565b60405161023191906139fe565b60405180910390f35b34801561024657600080fd5b50610261600480360381019061025c9190613a56565b61085b565b60405161026e9190613ac4565b60405180910390f35b34801561028357600080fd5b5061029e60048036038101906102999190613b0b565b6108a1565b005b3480156102ac57600080fd5b506102b56109b8565b6040516102c29190613b64565b60405180910390f35b3480156102d757600080fd5b506102e06109dc565b6040516102ed9190613b8e565b60405180910390f35b34801561030257600080fd5b5061031d60048036038101906103189190613ba9565b6109e9565b005b34801561032b57600080fd5b5061034660048036038101906103419190613c28565b610a49565b6040516103539190613b64565b60405180910390f35b34801561036857600080fd5b50610383600480360381019061037e9190613c55565b610a69565b6040516103909190613953565b60405180910390f35b3480156103a557600080fd5b506103c060048036038101906103bb9190613c82565b610a7f565b005b3480156103ce57600080fd5b506103e960048036038101906103e49190613b0b565b610aa0565b6040516103f69190613b8e565b60405180910390f35b34801561040b57600080fd5b5061042660048036038101906104219190613c82565b610b45565b005b610442600480360381019061043d9190613e0a565b610bc8565b005b34801561045057600080fd5b5061046b60048036038101906104669190613ba9565b610d29565b005b34801561047957600080fd5b50610494600480360381019061048f9190613a56565b610d49565b005b3480156104a257600080fd5b506104bd60048036038101906104b89190613a56565b610e20565b6040516104ca9190613b8e565b60405180910390f35b3480156104df57600080fd5b506104fa60048036038101906104f59190613a56565b610e91565b6040516105079190613ac4565b60405180910390f35b34801561051c57600080fd5b5061053760048036038101906105329190613f08565b610f17565b005b34801561054557600080fd5b50610560600480360381019061055b9190613c55565b611096565b60405161056d9190613b8e565b60405180910390f35b34801561058257600080fd5b5061059d60048036038101906105989190613a56565b61114d565b6040516105aa919061403e565b60405180910390f35b3480156105bf57600080fd5b506105da60048036038101906105d59190613c82565b6112d9565b6040516105e79190613953565b60405180910390f35b3480156105fc57600080fd5b50610605611344565b60405161061291906139fe565b60405180910390f35b34801561062757600080fd5b506106306113d6565b60405161063d9190613b64565b60405180910390f35b34801561065257600080fd5b5061066d6004803603810190610668919061408c565b6113dd565b005b34801561067b57600080fd5b506106966004803603810190610691919061416d565b6113f3565b005b3480156106a457600080fd5b506106bf60048036038101906106ba91906141f0565b611455565b6040516106ce93929190614368565b60405180910390f35b3480156106e357600080fd5b506106fe60048036038101906106f99190613a56565b611865565b60405161070b91906139fe565b60405180910390f35b34801561072057600080fd5b5061073b60048036038101906107369190613a56565b6118cd565b6040516107489190613953565b60405180910390f35b34801561075d57600080fd5b5061077860048036038101906107739190613c82565b611911565b005b34801561078657600080fd5b506107a1600480360381019061079c91906143a6565b611932565b6040516107ae9190613953565b60405180910390f35b60006107c2826119c6565b9050919050565b6060600080546107d890614415565b80601f016020809104026020016040519081016040528092919081815260200182805461080490614415565b80156108515780601f1061082657610100808354040283529160200191610851565b820191906000526020600020905b81548152906001019060200180831161083457829003601f168201915b5050505050905090565b600061086682611a40565b6004600083815260200190815260200160002060009054906101000a900473ffffffffffffffffffffffffffffffffffffffff169050919050565b60006108ac82610e91565b90508073ffffffffffffffffffffffffffffffffffffffff168373ffffffffffffffffffffffffffffffffffffffff160361091c576040517f08c379a0000000000000000000000000000000000000000000000000000000008152600401610913906144b8565b60405180910390fd5b8073ffffffffffffffffffffffffffffffffffffffff1661093b611a8b565b73ffffffffffffffffffffffffffffffffffffffff16148061096a575061096981610964611a8b565b611932565b5b6109a9576040517f08c379a00000000000000000000000000000000000000000000000000000000081526004016109a09061454a565b60405180910390fd5b6109b38383611a93565b505050565b7f2db9fd3d099848027c2383d0a083396f6c41510d7acfd92adc99b6cffcf31e9681565b6000600880549050905090565b6109fa6109f4611a8b565b82611b4c565b610a39576040517f08c379a0000000000000000000000000000000000000000000000000000000008152600401610a30906145dc565b60405180910390fd5b610a44838383611be1565b505050565b6000600a6000838152602001908152602001600020600101549050919050565b6000610a786000801b836112d9565b9050919050565b610a8882610a49565b610a9181611eda565b610a9b8383611eee565b505050565b6000610aab83611096565b8210610aec576040517f08c379a0000000000000000000000000000000000000000000000000000000008152600401610ae39061466e565b60405180910390fd5b600660008473ffffffffffffffffffffffffffffffffffffffff1673ffffffffffffffffffffffffffffffffffffffff168152602001908152602001600020600083815260200190815260200160002054905092915050565b610b4d611a8b565b73ffffffffffffffffffffffffffffffffffffffff168173ffffffffffffffffffffffffffffffffffffffff1614610bba576040517f08c379a0000000000000000000000000000000000000000000000000000000008152600401610bb190614700565b60405180910390fd5b610bc48282611fcf565b5050565b6000805b8251811015610cd8576000838281518110610bea57610be9614720565b5b60200260200101519050610bfd816120b1565b610c3c576040517f08c379a0000000000000000000000000000000000000000000000000000000008152600401610c339061479b565b60405180910390fd5b600d600082815260200190815260200160002060020160149054906101000a900460ff1615610ca0576040517f08c379a0000000000000000000000000000000000000000000000000000000008152600401610c9790614807565b60405180910390fd5b600d60008281526020019081526020016000206003015483610cc29190614856565b9250508080610cd09061488a565b915050610bcc565b5080341015610d1c576040517f08c379a0000000000000000000000000000000000000000000000000000000008152600401610d139061491e565b60405180910390fd5b610d25826120f2565b5050565b610d44838383604051806020016040528060008152506113f3565b505050565b610d5a610d54611a8b565b82611b4c565b610d99576040517f08c379a0000000000000000000000000000000000000000000000000000000008152600401610d90906145dc565b60405180910390fd5b610da3600c612187565b600d6000828152602001908152602001600020600080820160009055600182016000610dcf91906137fb565b6002820160006101000a81549073ffffffffffffffffffffffffffffffffffffffff02191690556002820160146101000a81549060ff021916905560038201600090555050610e1d816121e3565b50565b6000610e2a6109dc565b8210610e6b576040517f08c379a0000000000000000000000000000000000000000000000000000000008152600401610e62906149b0565b60405180910390fd5b60088281548110610e7f57610e7e614720565b5b90600052602060002001549050919050565b600080610e9d83612331565b9050600073ffffffffffffffffffffffffffffffffffffffff168173ffffffffffffffffffffffffffffffffffffffff1603610f0e576040517f08c379a0000000000000000000000000000000000000000000000000000000008152600401610f0590614a1c565b60405180910390fd5b80915050919050565b6000610f29610f24611a8b565b611096565b14610f69576040517f08c379a0000000000000000000000000000000000000000000000000000000008152600401610f6090614a88565b60405180910390fd5b6000610f75600b61236e565b90506040518060a00160405280828152602001838152602001610f96611a8b565b73ffffffffffffffffffffffffffffffffffffffff1681526020016000151581526020016709fdf42f6e480000815250600d6000838152602001908152602001600020600082015181600001556020820151816001019081610ff89190614c54565b5060408201518160020160006101000a81548173ffffffffffffffffffffffffffffffffffffffff021916908373ffffffffffffffffffffffffffffffffffffffff16021790555060608201518160020160146101000a81548160ff02191690831515021790555060808201518160030155905050611077600b61237c565b611081600c61237c565b61109261108c611a8b565b82612392565b5050565b60008073ffffffffffffffffffffffffffffffffffffffff168273ffffffffffffffffffffffffffffffffffffffff1603611106576040517f08c379a00000000000000000000000000000000000000000000000000000000081526004016110fd90614d98565b60405180910390fd5b600360008373ffffffffffffffffffffffffffffffffffffffff1673ffffffffffffffffffffffffffffffffffffffff168152602001908152602001600020549050919050565b61115561383b565b61115e826120b1565b61119d576040517f08c379a00000000000000000000000000000000000000000000000000000000081526004016111949061479b565b60405180910390fd5b600d60008381526020019081526020016000206040518060a0016040529081600082015481526020016001820180546111d590614415565b80601f016020809104026020016040519081016040528092919081815260200182805461120190614415565b801561124e5780601f106112235761010080835404028352916020019161124e565b820191906000526020600020905b81548152906001019060200180831161123157829003601f168201915b505050505081526020016002820160009054906101000a900473ffffffffffffffffffffffffffffffffffffffff1673ffffffffffffffffffffffffffffffffffffffff1673ffffffffffffffffffffffffffffffffffffffff1681526020016002820160149054906101000a900460ff161515151581526020016003820154815250509050919050565b6000600a600084815260200190815260200160002060000160008373ffffffffffffffffffffffffffffffffffffffff1673ffffffffffffffffffffffffffffffffffffffff16815260200190815260200160002060009054906101000a900460ff16905092915050565b60606001805461135390614415565b80601f016020809104026020016040519081016040528092919081815260200182805461137f90614415565b80156113cc5780601f106113a1576101008083540402835291602001916113cc565b820191906000526020600020905b8154815290600101906020018083116113af57829003601f168201915b5050505050905090565b6000801b81565b6113ef6113e8611a8b565b83836123b0565b5050565b6114046113fe611a8b565b83611b4c565b611443576040517f08c379a000000000000000000000000000000000000000000000000000000000815260040161143a906145dc565b60405180910390fd5b61144f8484848461251c565b50505050565b60606000806000611466600b61236e565b90506000611474600c61236e565b90508087106114b8576040517f08c379a00000000000000000000000000000000000000000000000000000000081526004016114af90614e04565b60405180910390fd5b600086116114fb576040517f08c379a00000000000000000000000000000000000000000000000000000000081526004016114f290614e70565b60405180910390fd5b6000821161153e576040517f08c379a000000000000000000000000000000000000000000000000000000000815260040161153590614edc565b60405180910390fd5b600060018761154d9190614856565b905060008167ffffffffffffffff81111561156b5761156a613cc7565b5b6040519080825280602002602001820160405280156115a457816020015b61159161383b565b8152602001906001900390816115895790505b5090506000805b85811015611745576115bc816120b1565b15611732578a811061173257600d60008281526020019081526020016000206040518060a00160405290816000820154815260200160018201805461160090614415565b80601f016020809104026020016040519081016040528092919081815260200182805461162c90614415565b80156116795780601f1061164e57610100808354040283529160200191611679565b820191906000526020600020905b81548152906001019060200180831161165c57829003601f168201915b505050505081526020016002820160009054906101000a900473ffffffffffffffffffffffffffffffffffffffff1673ffffffffffffffffffffffffffffffffffffffff1673ffffffffffffffffffffffffffffffffffffffff1681526020016002820160149054906101000a900460ff161515151581526020016003820154815250508383815181106117105761170f614720565b5b602002602001018190525081806117269061488a565b92505083820315611745575b808061173d9061488a565b9150506115ab565b5060008982116117555781611757565b895b905060008167ffffffffffffffff81111561177557611774613cc7565b5b6040519080825280602002602001820160405280156117ae57816020015b61179b61383b565b8152602001906001900390816117935790505b50905060005b82811015611808578481815181106117cf576117ce614720565b5b60200260200101518282815181106117ea576117e9614720565b5b602002602001018190525080806118009061488a565b9150506117b4565b5060008b8411905060008161183d577fffffffffffffffffffffffffffffffffffffffffffffffffffffffffffffffff61184a565b838e6118499190614856565b5b90508281839b509b509b505050505050505050509250925092565b606061187082611a40565b600061187a612578565b9050600081511161189a57604051806020016040528060008152506118c5565b806118a48461258f565b6040516020016118b5929190614f38565b6040516020818303038152906040525b915050919050565b60006118d8826120b1565b6118e5576000905061190c565b600d600083815260200190815260200160002060020160149054906101000a900460ff1690505b919050565b61191a82610a49565b61192381611eda565b61192d8383611fcf565b505050565b6000600560008473ffffffffffffffffffffffffffffffffffffffff1673ffffffffffffffffffffffffffffffffffffffff16815260200190815260200160002060008373ffffffffffffffffffffffffffffffffffffffff1673ffffffffffffffffffffffffffffffffffffffff16815260200190815260200160002060009054906101000a900460ff16905092915050565b60007f7965db0b000000000000000000000000000000000000000000000000000000007bffffffffffffffffffffffffffffffffffffffffffffffffffffffff1916827bffffffffffffffffffffffffffffffffffffffffffffffffffffffff19161480611a395750611a388261265d565b5b9050919050565b611a49816120b1565b611a88576040517f08c379a0000000000000000000000000000000000000000000000000000000008152600401611a7f90614a1c565b60405180910390fd5b50565b600033905090565b816004600083815260200190815260200160002060006101000a81548173ffffffffffffffffffffffffffffffffffffffff021916908373ffffffffffffffffffffffffffffffffffffffff160217905550808273ffffffffffffffffffffffffffffffffffffffff16611b0683610e91565b73ffffffffffffffffffffffffffffffffffffffff167f8c5be1e5ebec7d5bd14f71427d1e84f3dd0314c0f7b2291e5b200ac8c7c3b92560405160405180910390a45050565b600080611b5883610e91565b90508073ffffffffffffffffffffffffffffffffffffffff168473ffffffffffffffffffffffffffffffffffffffff161480611b9a5750611b998185611932565b5b80611bd857508373ffffffffffffffffffffffffffffffffffffffff16611bc08461085b565b73ffffffffffffffffffffffffffffffffffffffff16145b91505092915050565b8273ffffffffffffffffffffffffffffffffffffffff16611c0182610e91565b73ffffffffffffffffffffffffffffffffffffffff1614611c57576040517f08c379a0000000000000000000000000000000000000000000000000000000008152600401611c4e90614fce565b60405180910390fd5b600073ffffffffffffffffffffffffffffffffffffffff168273ffffffffffffffffffffffffffffffffffffffff1603611cc6576040517f08c379a0000000000000000000000000000000000000000000000000000000008152600401611cbd90615060565b60405180910390fd5b611cd383838360016126d7565b8273ffffffffffffffffffffffffffffffffffffffff16611cf382610e91565b73ffffffffffffffffffffffffffffffffffffffff1614611d49576040517f08c379a0000000000000000000000000000000000000000000000000000000008152600401611d4090614fce565b60405180910390fd5b6004600082815260200190815260200160002060006101000a81549073ffffffffffffffffffffffffffffffffffffffff02191690556001600360008573ffffffffffffffffffffffffffffffffffffffff1673ffffffffffffffffffffffffffffffffffffffff168152602001908152602001600020600082825403925050819055506001600360008473ffffffffffffffffffffffffffffffffffffffff1673ffffffffffffffffffffffffffffffffffffffff16815260200190815260200160002060008282540192505081905550816002600083815260200190815260200160002060006101000a81548173ffffffffffffffffffffffffffffffffffffffff021916908373ffffffffffffffffffffffffffffffffffffffff160217905550808273ffffffffffffffffffffffffffffffffffffffff168473ffffffffffffffffffffffffffffffffffffffff167fddf252ad1be2c89b69c2b068fc378daa952ba7f163c4a11628f55a4df523b3ef60405160405180910390a4611ed5838383600161278f565b505050565b611eeb81611ee6611a8b565b612795565b50565b611ef882826112d9565b611fcb576001600a600084815260200190815260200160002060000160008373ffffffffffffffffffffffffffffffffffffffff1673ffffffffffffffffffffffffffffffffffffffff16815260200190815260200160002060006101000a81548160ff021916908315150217905550611f70611a8b565b73ffffffffffffffffffffffffffffffffffffffff168173ffffffffffffffffffffffffffffffffffffffff16837f2f8788117e7eff1d82e926ec794901d17c78024a50270940304540a733656f0d60405160405180910390a45b5050565b611fd982826112d9565b156120ad576000600a600084815260200190815260200160002060000160008373ffffffffffffffffffffffffffffffffffffffff1673ffffffffffffffffffffffffffffffffffffffff16815260200190815260200160002060006101000a81548160ff021916908315150217905550612052611a8b565b73ffffffffffffffffffffffffffffffffffffffff168173ffffffffffffffffffffffffffffffffffffffff16837ff6391f5c32d9c69d2a47ea670b442974b53935d1edc7fd64eb21e047a839171b60405160405180910390a45b5050565b60008073ffffffffffffffffffffffffffffffffffffffff166120d383612331565b73ffffffffffffffffffffffffffffffffffffffff1614159050919050565b6121026120fd611a8b565b610a69565b612141576040517f08c379a0000000000000000000000000000000000000000000000000000000008152600401612138906150cc565b60405180910390fd5b60005b81518110156121835761217082828151811061216357612162614720565b5b602002602001015161281a565b808061217b9061488a565b915050612144565b5050565b600081600001549050600081116121d3576040517f08c379a00000000000000000000000000000000000000000000000000000000081526004016121ca90615138565b60405180910390fd5b6001810382600001819055505050565b60006121ee82610e91565b90506121fe8160008460016126d7565b61220782610e91565b90506004600083815260200190815260200160002060006101000a81549073ffffffffffffffffffffffffffffffffffffffff02191690556001600360008373ffffffffffffffffffffffffffffffffffffffff1673ffffffffffffffffffffffffffffffffffffffff168152602001908152602001600020600082825403925050819055506002600083815260200190815260200160002060006101000a81549073ffffffffffffffffffffffffffffffffffffffff021916905581600073ffffffffffffffffffffffffffffffffffffffff168273ffffffffffffffffffffffffffffffffffffffff167fddf252ad1be2c89b69c2b068fc378daa952ba7f163c4a11628f55a4df523b3ef60405160405180910390a461232d81600084600161278f565b5050565b60006002600083815260200190815260200160002060009054906101000a900473ffffffffffffffffffffffffffffffffffffffff169050919050565b600081600001549050919050565b6001816000016000828254019250508190555050565b6123ac828260405180602001604052806000815250612947565b5050565b8173ffffffffffffffffffffffffffffffffffffffff168373ffffffffffffffffffffffffffffffffffffffff160361241e576040517f08c379a0000000000000000000000000000000000000000000000000000000008152600401612415906151a4565b60405180910390fd5b80600560008573ffffffffffffffffffffffffffffffffffffffff1673ffffffffffffffffffffffffffffffffffffffff16815260200190815260200160002060008473ffffffffffffffffffffffffffffffffffffffff1673ffffffffffffffffffffffffffffffffffffffff16815260200190815260200160002060006101000a81548160ff0219169083151502179055508173ffffffffffffffffffffffffffffffffffffffff168373ffffffffffffffffffffffffffffffffffffffff167f17307eab39ab6107e8899845ad3d59bd9653f200f220920489ca2b5937696c318360405161250f9190613953565b60405180910390a3505050565b612527848484611be1565b612533848484846129a2565b612572576040517f08c379a000000000000000000000000000000000000000000000000000000000815260040161256990615236565b60405180910390fd5b50505050565b606060405180602001604052806000815250905090565b60606000600161259e84612b29565b01905060008167ffffffffffffffff8111156125bd576125bc613cc7565b5b6040519080825280601f01601f1916602001820160405280156125ef5781602001600182028036833780820191505090505b509050600082602001820190505b600115612652578080600190039150507f3031323334353637383961626364656600000000000000000000000000000000600a86061a8153600a858161264657612645615256565b5b049450600085036125fd575b819350505050919050565b60007f780e9d63000000000000000000000000000000000000000000000000000000007bffffffffffffffffffffffffffffffffffffffffffffffffffffffff1916827bffffffffffffffffffffffffffffffffffffffffffffffffffffffff191614806126d057506126cf82612c7c565b5b9050919050565b600073ffffffffffffffffffffffffffffffffffffffff168473ffffffffffffffffffffffffffffffffffffffff16148061273e5750600073ffffffffffffffffffffffffffffffffffffffff168373ffffffffffffffffffffffffffffffffffffffff16145b61277d576040517f08c379a0000000000000000000000000000000000000000000000000000000008152600401612774906152d1565b60405180910390fd5b61278984848484612d5e565b50505050565b50505050565b61279f82826112d9565b612816576127ac81612ebc565b6127ba8360001c6020612ee9565b6040516020016127cb929190615389565b6040516020818303038152906040526040517f08c379a000000000000000000000000000000000000000000000000000000000815260040161280d91906139fe565b60405180910390fd5b5050565b61282a612825611a8b565b610a69565b612869576040517f08c379a0000000000000000000000000000000000000000000000000000000008152600401612860906150cc565b60405180910390fd5b612872816120b1565b6128b1576040517f08c379a00000000000000000000000000000000000000000000000000000000081526004016128a89061479b565b60405180910390fd5b600d600082815260200190815260200160002060020160149054906101000a900460ff1615612915576040517f08c379a000000000000000000000000000000000000000000000000000000000815260040161290c90614807565b60405180910390fd5b6001600d600083815260200190815260200160002060020160146101000a81548160ff02191690831515021790555050565b6129518383613125565b61295e60008484846129a2565b61299d576040517f08c379a000000000000000000000000000000000000000000000000000000000815260040161299490615236565b60405180910390fd5b505050565b60006129c38473ffffffffffffffffffffffffffffffffffffffff16613342565b15612b1c578373ffffffffffffffffffffffffffffffffffffffff1663150b7a026129ec611a8b565b8786866040518563ffffffff1660e01b8152600401612a0e9493929190615418565b6020604051808303816000875af1925050508015612a4a57506040513d601f19601f82011682018060405250810190612a479190615479565b60015b612acc573d8060008114612a7a576040519150601f19603f3d011682016040523d82523d6000602084013e612a7f565b606091505b506000815103612ac4576040517f08c379a0000000000000000000000000000000000000000000000000000000008152600401612abb90615236565b60405180910390fd5b805181602001fd5b63150b7a0260e01b7bffffffffffffffffffffffffffffffffffffffffffffffffffffffff1916817bffffffffffffffffffffffffffffffffffffffffffffffffffffffff191614915050612b21565b600190505b949350505050565b600080600090507a184f03e93ff9f4daa797ed6e38ed64bf6a1f0100000000000000008310612b87577a184f03e93ff9f4daa797ed6e38ed64bf6a1f0100000000000000008381612b7d57612b7c615256565b5b0492506040810190505b6d04ee2d6d415b85acef81000000008310612bc4576d04ee2d6d415b85acef81000000008381612bba57612bb9615256565b5b0492506020810190505b662386f26fc100008310612bf357662386f26fc100008381612be957612be8615256565b5b0492506010810190505b6305f5e1008310612c1c576305f5e1008381612c1257612c11615256565b5b0492506008810190505b6127108310612c41576127108381612c3757612c36615256565b5b0492506004810190505b60648310612c645760648381612c5a57612c59615256565b5b0492506002810190505b600a8310612c73576001810190505b80915050919050565b60007f80ac58cd000000000000000000000000000000000000000000000000000000007bffffffffffffffffffffffffffffffffffffffffffffffffffffffff1916827bffffffffffffffffffffffffffffffffffffffffffffffffffffffff19161480612d4757507f5b5e139f000000000000000000000000000000000000000000000000000000007bffffffffffffffffffffffffffffffffffffffffffffffffffffffff1916827bffffffffffffffffffffffffffffffffffffffffffffffffffffffff1916145b80612d575750612d5682613365565b5b9050919050565b612d6a848484846133cf565b6001811115612dae576040517f08c379a0000000000000000000000000000000000000000000000000000000008152600401612da590615518565b60405180910390fd5b6000829050600073ffffffffffffffffffffffffffffffffffffffff168573ffffffffffffffffffffffffffffffffffffffff1603612df557612df0816134f5565b612e34565b8373ffffffffffffffffffffffffffffffffffffffff168573ffffffffffffffffffffffffffffffffffffffff1614612e3357612e32858261353e565b5b5b600073ffffffffffffffffffffffffffffffffffffffff168473ffffffffffffffffffffffffffffffffffffffff1603612e7657612e71816136ab565b612eb5565b8473ffffffffffffffffffffffffffffffffffffffff168473ffffffffffffffffffffffffffffffffffffffff1614612eb457612eb3848261377c565b5b5b5050505050565b6060612ee28273ffffffffffffffffffffffffffffffffffffffff16601460ff16612ee9565b9050919050565b606060006002836002612efc9190615538565b612f069190614856565b67ffffffffffffffff811115612f1f57612f1e613cc7565b5b6040519080825280601f01601f191660200182016040528015612f515781602001600182028036833780820191505090505b5090507f300000000000000000000000000000000000000000000000000000000000000081600081518110612f8957612f88614720565b5b60200101907effffffffffffffffffffffffffffffffffffffffffffffffffffffffffffff1916908160001a9053507f780000000000000000000000000000000000000000000000000000000000000081600181518110612fed57612fec614720565b5b60200101907effffffffffffffffffffffffffffffffffffffffffffffffffffffffffffff1916908160001a9053506000600184600261302d9190615538565b6130379190614856565b90505b60018111156130d7577f3031323334353637383961626364656600000000000000000000000000000000600f86166010811061307957613078614720565b5b1a60f81b8282815181106130905761308f614720565b5b60200101907effffffffffffffffffffffffffffffffffffffffffffffffffffffffffffff1916908160001a905350600485901c9450806130d09061557a565b905061303a565b506000841461311b576040517f08c379a0000000000000000000000000000000000000000000000000000000008152600401613112906155ef565b60405180910390fd5b8091505092915050565b600073ffffffffffffffffffffffffffffffffffffffff168273ffffffffffffffffffffffffffffffffffffffff1603613194576040517f08c379a000000000000000000000000000000000000000000000000000000000815260040161318b9061565b565b60405180910390fd5b61319d816120b1565b156131dd576040517f08c379a00000000000000000000000000000000000000000000000000000000081526004016131d4906156c7565b60405180910390fd5b6131eb6000838360016126d7565b6131f4816120b1565b15613234576040517f08c379a000000000000000000000000000000000000000000000000000000000815260040161322b906156c7565b60405180910390fd5b6001600360008473ffffffffffffffffffffffffffffffffffffffff1673ffffffffffffffffffffffffffffffffffffffff16815260200190815260200160002060008282540192505081905550816002600083815260200190815260200160002060006101000a81548173ffffffffffffffffffffffffffffffffffffffff021916908373ffffffffffffffffffffffffffffffffffffffff160217905550808273ffffffffffffffffffffffffffffffffffffffff16600073ffffffffffffffffffffffffffffffffffffffff167fddf252ad1be2c89b69c2b068fc378daa952ba7f163c4a11628f55a4df523b3ef60405160405180910390a461333e60008383600161278f565b5050565b6000808273ffffffffffffffffffffffffffffffffffffffff163b119050919050565b60007f01ffc9a7000000000000000000000000000000000000000000000000000000007bffffffffffffffffffffffffffffffffffffffffffffffffffffffff1916827bffffffffffffffffffffffffffffffffffffffffffffffffffffffff1916149050919050565b60018111156134ef57600073ffffffffffffffffffffffffffffffffffffffff168473ffffffffffffffffffffffffffffffffffffffff16146134635780600360008673ffffffffffffffffffffffffffffffffffffffff1673ffffffffffffffffffffffffffffffffffffffff168152602001908152602001600020600082825461345b91906156e7565b925050819055505b600073ffffffffffffffffffffffffffffffffffffffff168373ffffffffffffffffffffffffffffffffffffffff16146134ee5780600360008573ffffffffffffffffffffffffffffffffffffffff1673ffffffffffffffffffffffffffffffffffffffff16815260200190815260200160002060008282546134e69190614856565b925050819055505b5b50505050565b6008805490506009600083815260200190815260200160002081905550600881908060018154018082558091505060019003906000526020600020016000909190919091505550565b6000600161354b84611096565b61355591906156e7565b905060006007600084815260200190815260200160002054905081811461363a576000600660008673ffffffffffffffffffffffffffffffffffffffff1673ffffffffffffffffffffffffffffffffffffffff168152602001908152602001600020600084815260200190815260200160002054905080600660008773ffffffffffffffffffffffffffffffffffffffff1673ffffffffffffffffffffffffffffffffffffffff168152602001908152602001600020600084815260200190815260200160002081905550816007600083815260200190815260200160002081905550505b6007600084815260200190815260200160002060009055600660008573ffffffffffffffffffffffffffffffffffffffff1673ffffffffffffffffffffffffffffffffffffffff16815260200190815260200160002060008381526020019081526020016000206000905550505050565b600060016008805490506136bf91906156e7565b90506000600960008481526020019081526020016000205490506000600883815481106136ef576136ee614720565b5b90600052602060002001549050806008838154811061371157613710614720565b5b9060005260206000200181905550816009600083815260200190815260200160002081905550600960008581526020019081526020016000206000905560088054806137605761375f61571b565b5b6001900381819060005260206000200160009055905550505050565b600061378783611096565b905081600660008573ffffffffffffffffffffffffffffffffffffffff1673ffffffffffffffffffffffffffffffffffffffff168152602001908152602001600020600083815260200190815260200160002081905550806007600084815260200190815260200160002081905550505050565b50805461380790614415565b6000825580601f106138195750613838565b601f0160209004906000526020600020908101906138379190613882565b5b50565b6040518060a001604052806000815260200160608152602001600073ffffffffffffffffffffffffffffffffffffffff168152602001600015158152602001600081525090565b5b8082111561389b576000816000905550600101613883565b5090565b6000604051905090565b600080fd5b600080fd5b60007fffffffff0000000000000000000000000000000000000000000000000000000082169050919050565b6138e8816138b3565b81146138f357600080fd5b50565b600081359050613905816138df565b92915050565b600060208284031215613921576139206138a9565b5b600061392f848285016138f6565b91505092915050565b60008115159050919050565b61394d81613938565b82525050565b60006020820190506139686000830184613944565b92915050565b600081519050919050565b600082825260208201905092915050565b60005b838110156139a857808201518184015260208101905061398d565b60008484015250505050565b6000601f19601f8301169050919050565b60006139d08261396e565b6139da8185613979565b93506139ea81856020860161398a565b6139f3816139b4565b840191505092915050565b60006020820190508181036000830152613a1881846139c5565b905092915050565b6000819050919050565b613a3381613a20565b8114613a3e57600080fd5b50565b600081359050613a5081613a2a565b92915050565b600060208284031215613a6c57613a6b6138a9565b5b6000613a7a84828501613a41565b91505092915050565b600073ffffffffffffffffffffffffffffffffffffffff82169050919050565b6000613aae82613a83565b9050919050565b613abe81613aa3565b82525050565b6000602082019050613ad96000830184613ab5565b92915050565b613ae881613aa3565b8114613af357600080fd5b50565b600081359050613b0581613adf565b92915050565b60008060408385031215613b2257613b216138a9565b5b6000613b3085828601613af6565b9250506020613b4185828601613a41565b9150509250929050565b6000819050919050565b613b5e81613b4b565b82525050565b6000602082019050613b796000830184613b55565b92915050565b613b8881613a20565b82525050565b6000602082019050613ba36000830184613b7f565b92915050565b600080600060608486031215613bc257613bc16138a9565b5b6000613bd086828701613af6565b9350506020613be186828701613af6565b9250506040613bf286828701613a41565b9150509250925092565b613c0581613b4b565b8114613c1057600080fd5b50565b600081359050613c2281613bfc565b92915050565b600060208284031215613c3e57613c3d6138a9565b5b6000613c4c84828501613c13565b91505092915050565b600060208284031215613c6b57613c6a6138a9565b5b6000613c7984828501613af6565b91505092915050565b60008060408385031215613c9957613c986138a9565b5b6000613ca785828601613c13565b9250506020613cb885828601613af6565b9150509250929050565b600080fd5b7f4e487b7100000000000000000000000000000000000000000000000000000000600052604160045260246000fd5b613cff826139b4565b810181811067ffffffffffffffff82111715613d1e57613d1d613cc7565b5b80604052505050565b6000613d3161389f565b9050613d3d8282613cf6565b919050565b600067ffffffffffffffff821115613d5d57613d5c613cc7565b5b602082029050602081019050919050565b600080fd5b6000613d86613d8184613d42565b613d27565b90508083825260208201905060208402830185811115613da957613da8613d6e565b5b835b81811015613dd25780613dbe8882613a41565b845260208401935050602081019050613dab565b5050509392505050565b600082601f830112613df157613df0613cc2565b5b8135613e01848260208601613d73565b91505092915050565b600060208284031215613e2057613e1f6138a9565b5b600082013567ffffffffffffffff811115613e3e57613e3d6138ae565b5b613e4a84828501613ddc565b91505092915050565b600080fd5b600067ffffffffffffffff821115613e7357613e72613cc7565b5b613e7c826139b4565b9050602081019050919050565b82818337600083830152505050565b6000613eab613ea684613e58565b613d27565b905082815260208101848484011115613ec757613ec6613e53565b5b613ed2848285613e89565b509392505050565b600082601f830112613eef57613eee613cc2565b5b8135613eff848260208601613e98565b91505092915050565b600060208284031215613f1e57613f1d6138a9565b5b600082013567ffffffffffffffff811115613f3c57613f3b6138ae565b5b613f4884828501613eda565b91505092915050565b613f5a81613a20565b82525050565b600082825260208201905092915050565b6000613f7c8261396e565b613f868185613f60565b9350613f9681856020860161398a565b613f9f816139b4565b840191505092915050565b613fb381613aa3565b82525050565b613fc281613938565b82525050565b600060a083016000830151613fe06000860182613f51565b5060208301518482036020860152613ff88282613f71565b915050604083015161400d6040860182613faa565b5060608301516140206060860182613fb9565b5060808301516140336080860182613f51565b508091505092915050565b600060208201905081810360008301526140588184613fc8565b905092915050565b61406981613938565b811461407457600080fd5b50565b60008135905061408681614060565b92915050565b600080604083850312156140a3576140a26138a9565b5b60006140b185828601613af6565b92505060206140c285828601614077565b9150509250929050565b600067ffffffffffffffff8211156140e7576140e6613cc7565b5b6140f0826139b4565b9050602081019050919050565b600061411061410b846140cc565b613d27565b90508281526020810184848401111561412c5761412b613e53565b5b614137848285613e89565b509392505050565b600082601f83011261415457614153613cc2565b5b81356141648482602086016140fd565b91505092915050565b60008060008060808587031215614187576141866138a9565b5b600061419587828801613af6565b94505060206141a687828801613af6565b93505060406141b787828801613a41565b925050606085013567ffffffffffffffff8111156141d8576141d76138ae565b5b6141e48782880161413f565b91505092959194509250565b60008060408385031215614207576142066138a9565b5b600061421585828601613a41565b925050602061422685828601613a41565b9150509250929050565b600081519050919050565b600082825260208201905092915050565b6000819050602082019050919050565b600060a0830160008301516142746000860182613f51565b506020830151848203602086015261428c8282613f71565b91505060408301516142a16040860182613faa565b5060608301516142b46060860182613fb9565b5060808301516142c76080860182613f51565b508091505092915050565b60006142de838361425c565b905092915050565b6000602082019050919050565b60006142fe82614230565b614308818561423b565b93508360208202850161431a8561424c565b8060005b85811015614356578484038952815161433785826142d2565b9450614342836142e6565b925060208a0199505060018101905061431e565b50829750879550505050505092915050565b6000606082019050818103600083015261438281866142f3565b90506143916020830185613b7f565b61439e6040830184613944565b949350505050565b600080604083850312156143bd576143bc6138a9565b5b60006143cb85828601613af6565b92505060206143dc85828601613af6565b9150509250929050565b7f4e487b7100000000000000000000000000000000000000000000000000000000600052602260045260246000fd5b6000600282049050600182168061442d57607f821691505b6020821081036144405761443f6143e6565b5b50919050565b7f4552433732313a20617070726f76616c20746f2063757272656e74206f776e6560008201527f7200000000000000000000000000000000000000000000000000000000000000602082015250565b60006144a2602183613979565b91506144ad82614446565b604082019050919050565b600060208201905081810360008301526144d181614495565b9050919050565b7f4552433732313a20617070726f76652063616c6c6572206973206e6f7420746f60008201527f6b656e206f776e6572206f7220617070726f76656420666f7220616c6c000000602082015250565b6000614534603d83613979565b915061453f826144d8565b604082019050919050565b6000602082019050818103600083015261456381614527565b9050919050565b7f4552433732313a2063616c6c6572206973206e6f7420746f6b656e206f776e6560008201527f72206f7220617070726f76656400000000000000000000000000000000000000602082015250565b60006145c6602d83613979565b91506145d18261456a565b604082019050919050565b600060208201905081810360008301526145f5816145b9565b9050919050565b7f455243373231456e756d657261626c653a206f776e657220696e646578206f7560008201527f74206f6620626f756e6473000000000000000000000000000000000000000000602082015250565b6000614658602b83613979565b9150614663826145fc565b604082019050919050565b600060208201905081810360008301526146878161464b565b9050919050565b7f416363657373436f6e74726f6c3a2063616e206f6e6c792072656e6f756e636560008201527f20726f6c657320666f722073656c660000000000000000000000000000000000602082015250565b60006146ea602f83613979565b91506146f58261468e565b604082019050919050565b60006020820190508181036000830152614719816146dd565b9050919050565b7f4e487b7100000000000000000000000000000000000000000000000000000000600052603260045260246000fd5b7f546f6b656e20646f6573206e6f74206578697374000000000000000000000000600082015250565b6000614785601483613979565b91506147908261474f565b602082019050919050565b600060208201905081810360008301526147b481614778565b9050919050565b7f546f6b656e20697320616c726561647920646563727970746564000000000000600082015250565b60006147f1601a83613979565b91506147fc826147bb565b602082019050919050565b60006020820190508181036000830152614820816147e4565b9050919050565b7f4e487b7100000000000000000000000000000000000000000000000000000000600052601160045260246000fd5b600061486182613a20565b915061486c83613a20565b925082820190508082111561488457614883614827565b5b92915050565b600061489582613a20565b91507fffffffffffffffffffffffffffffffffffffffffffffffffffffffffffffffff82036148c7576148c6614827565b5b600182019050919050565b7f496e73756666696369656e742066756e64730000000000000000000000000000600082015250565b6000614908601283613979565b9150614913826148d2565b602082019050919050565b60006020820190508181036000830152614937816148fb565b9050919050565b7f455243373231456e756d657261626c653a20676c6f62616c20696e646578206f60008201527f7574206f6620626f756e64730000000000000000000000000000000000000000602082015250565b600061499a602c83613979565b91506149a58261493e565b604082019050919050565b600060208201905081810360008301526149c98161498d565b9050919050565b7f4552433732313a20696e76616c696420746f6b656e2049440000000000000000600082015250565b6000614a06601883613979565b9150614a11826149d0565b602082019050919050565b60006020820190508181036000830152614a35816149f9565b9050919050565b7f4f6e6c7920312053425420706572206164647265737320616c6c6f7765640000600082015250565b6000614a72601e83613979565b9150614a7d82614a3c565b602082019050919050565b60006020820190508181036000830152614aa181614a65565b9050919050565b60008190508160005260206000209050919050565b60006020601f8301049050919050565b600082821b905092915050565b600060088302614b0a7fffffffffffffffffffffffffffffffffffffffffffffffffffffffffffffffff82614acd565b614b148683614acd565b95508019841693508086168417925050509392505050565b6000819050919050565b6000614b51614b4c614b4784613a20565b614b2c565b613a20565b9050919050565b6000819050919050565b614b6b83614b36565b614b7f614b7782614b58565b848454614ada565b825550505050565b600090565b614b94614b87565b614b9f818484614b62565b505050565b5b81811015614bc357614bb8600082614b8c565b600181019050614ba5565b5050565b601f821115614c0857614bd981614aa8565b614be284614abd565b81016020851015614bf1578190505b614c05614bfd85614abd565b830182614ba4565b50505b505050565b600082821c905092915050565b6000614c2b60001984600802614c0d565b1980831691505092915050565b6000614c448383614c1a565b9150826002028217905092915050565b614c5d8261396e565b67ffffffffffffffff811115614c7657614c75613cc7565b5b614c808254614415565b614c8b828285614bc7565b600060209050601f831160018114614cbe5760008415614cac578287015190505b614cb68582614c38565b865550614d1e565b601f198416614ccc86614aa8565b60005b82811015614cf457848901518255600182019150602085019450602081019050614ccf565b86831015614d115784890151614d0d601f891682614c1a565b8355505b6001600288020188555050505b505050505050565b7f4552433732313a2061646472657373207a65726f206973206e6f74206120766160008201527f6c6964206f776e65720000000000000000000000000000000000000000000000602082015250565b6000614d82602983613979565b9150614d8d82614d26565b604082019050919050565b60006020820190508181036000830152614db181614d75565b9050919050565b7f437572736f72206973206f7574206f6620626f756e6473000000000000000000600082015250565b6000614dee601783613979565b9150614df982614db8565b602082019050919050565b60006020820190508181036000830152614e1d81614de1565b9050919050565b7f506167652073697a65206d7573742062652067726561746572207468616e2030600082015250565b6000614e5a602083613979565b9150614e6582614e24565b602082019050919050565b60006020820190508181036000830152614e8981614e4d565b9050919050565b7f4e6f20746f6b656e732065786973740000000000000000000000000000000000600082015250565b6000614ec6600f83613979565b9150614ed182614e90565b602082019050919050565b60006020820190508181036000830152614ef581614eb9565b9050919050565b600081905092915050565b6000614f128261396e565b614f1c8185614efc565b9350614f2c81856020860161398a565b80840191505092915050565b6000614f448285614f07565b9150614f508284614f07565b91508190509392505050565b7f4552433732313a207472616e736665722066726f6d20696e636f72726563742060008201527f6f776e6572000000000000000000000000000000000000000000000000000000602082015250565b6000614fb8602583613979565b9150614fc382614f5c565b604082019050919050565b60006020820190508181036000830152614fe781614fab565b9050919050565b7f4552433732313a207472616e7366657220746f20746865207a65726f2061646460008201527f7265737300000000000000000000000000000000000000000000000000000000602082015250565b600061504a602483613979565b915061505582614fee565b604082019050919050565b600060208201905081810360008301526150798161503d565b9050919050565b7f43616c6c6572206973206e6f7420616e2061646d696e00000000000000000000600082015250565b60006150b6601683613979565b91506150c182615080565b602082019050919050565b600060208201905081810360008301526150e5816150a9565b9050919050565b7f436f756e7465723a2064656372656d656e74206f766572666c6f770000000000600082015250565b6000615122601b83613979565b915061512d826150ec565b602082019050919050565b6000602082019050818103600083015261515181615115565b9050919050565b7f4552433732313a20617070726f766520746f2063616c6c657200000000000000600082015250565b600061518e601983613979565b915061519982615158565b602082019050919050565b600060208201905081810360008301526151bd81615181565b9050919050565b7f4552433732313a207472616e7366657220746f206e6f6e20455243373231526560008201527f63656976657220696d706c656d656e7465720000000000000000000000000000602082015250565b6000615220603283613979565b915061522b826151c4565b604082019050919050565b6000602082019050818103600083015261524f81615213565b9050919050565b7f4e487b7100000000000000000000000000000000000000000000000000000000600052601260045260246000fd5b7f54686973206120736f756c626f756e6420746f6b656e00000000000000000000600082015250565b60006152bb601683613979565b91506152c682615285565b602082019050919050565b600060208201905081810360008301526152ea816152ae565b9050919050565b7f416363657373436f6e74726f6c3a206163636f756e7420000000000000000000600082015250565b6000615327601783614efc565b9150615332826152f1565b601782019050919050565b7f206973206d697373696e6720726f6c6520000000000000000000000000000000600082015250565b6000615373601183614efc565b915061537e8261533d565b601182019050919050565b60006153948261531a565b91506153a08285614f07565b91506153ab82615366565b91506153b78284614f07565b91508190509392505050565b600081519050919050565b600082825260208201905092915050565b60006153ea826153c3565b6153f481856153ce565b935061540481856020860161398a565b61540d816139b4565b840191505092915050565b600060808201905061542d6000830187613ab5565b61543a6020830186613ab5565b6154476040830185613b7f565b818103606083015261545981846153df565b905095945050505050565b600081519050615473816138df565b92915050565b60006020828403121561548f5761548e6138a9565b5b600061549d84828501615464565b91505092915050565b7f455243373231456e756d657261626c653a20636f6e736563757469766520747260008201527f616e7366657273206e6f7420737570706f727465640000000000000000000000602082015250565b6000615502603583613979565b915061550d826154a6565b604082019050919050565b60006020820190508181036000830152615531816154f5565b9050919050565b600061554382613a20565b915061554e83613a20565b925082820261555c81613a20565b9150828204841483151761557357615572614827565b5b5092915050565b600061558582613a20565b91506000820361559857615597614827565b5b600182039050919050565b7f537472696e67733a20686578206c656e67746820696e73756666696369656e74600082015250565b60006155d9602083613979565b91506155e4826155a3565b602082019050919050565b60006020820190508181036000830152615608816155cc565b9050919050565b7f4552433732313a206d696e7420746f20746865207a65726f2061646472657373600082015250565b6000615645602083613979565b91506156508261560f565b602082019050919050565b6000602082019050818103600083015261567481615638565b9050919050565b7f4552433732313a20746f6b656e20616c7265616479206d696e74656400000000600082015250565b60006156b1601c83613979565b91506156bc8261567b565b602082019050919050565b600060208201905081810360008301526156e0816156a4565b9050919050565b60006156f282613a20565b91506156fd83613a20565b925082820390508181111561571557615714614827565b5b92915050565b7f4e487b7100000000000000000000000000000000000000000000000000000000600052603160045260246000fdfea26469706673582212202e11af1237d1d704d2d87613c31103036d3a9480e2fa9f59a5ab779763e85a7d64736f6c63430008110033",
  "devdoc": {
    "kind": "dev",
    "methods": {
      "approve(address,uint256)": {
        "details": "See {IERC721-approve}."
      },
      "balanceOf(address)": {
        "details": "See {IERC721-balanceOf}."
      },
      "getApproved(uint256)": {
        "details": "See {IERC721-getApproved}."
      },
      "getRoleAdmin(bytes32)": {
        "details": "Returns the admin role that controls `role`. See {grantRole} and {revokeRole}. To change a role's admin, use {_setRoleAdmin}."
      },
      "grantRole(bytes32,address)": {
        "details": "Grants `role` to `account`. If `account` had not been already granted `role`, emits a {RoleGranted} event. Requirements: - the caller must have ``role``'s admin role. May emit a {RoleGranted} event."
      },
      "hasRole(bytes32,address)": {
        "details": "Returns `true` if `account` has been granted `role`."
      },
      "isApprovedForAll(address,address)": {
        "details": "See {IERC721-isApprovedForAll}."
      },
      "name()": {
        "details": "See {IERC721Metadata-name}."
      },
      "ownerOf(uint256)": {
        "details": "See {IERC721-ownerOf}."
      },
      "renounceRole(bytes32,address)": {
        "details": "Revokes `role` from the calling account. Roles are often managed via {grantRole} and {revokeRole}: this function's purpose is to provide a mechanism for accounts to lose their privileges if they are compromised (such as when a trusted device is misplaced). If the calling account had been revoked `role`, emits a {RoleRevoked} event. Requirements: - the caller must be `account`. May emit a {RoleRevoked} event."
      },
      "revokeRole(bytes32,address)": {
        "details": "Revokes `role` from `account`. If `account` had been granted `role`, emits a {RoleRevoked} event. Requirements: - the caller must have ``role``'s admin role. May emit a {RoleRevoked} event."
      },
      "safeTransferFrom(address,address,uint256)": {
        "details": "See {IERC721-safeTransferFrom}."
      },
      "safeTransferFrom(address,address,uint256,bytes)": {
        "details": "See {IERC721-safeTransferFrom}."
      },
      "setApprovalForAll(address,bool)": {
        "details": "See {IERC721-setApprovalForAll}."
      },
      "symbol()": {
        "details": "See {IERC721Metadata-symbol}."
      },
      "tokenByIndex(uint256)": {
        "details": "See {IERC721Enumerable-tokenByIndex}."
      },
      "tokenOfOwnerByIndex(address,uint256)": {
        "details": "See {IERC721Enumerable-tokenOfOwnerByIndex}."
      },
      "tokenURI(uint256)": {
        "details": "See {IERC721Metadata-tokenURI}."
      },
      "totalSupply()": {
        "details": "See {IERC721Enumerable-totalSupply}."
      },
      "transferFrom(address,address,uint256)": {
        "details": "See {IERC721-transferFrom}."
      }
    },
    "version": 1
  },
  "userdoc": {
    "kind": "user",
    "methods": {},
    "version": 1
  },
  "storageLayout": {
    "storage": [
      {
        "astId": 414,
        "contract": "contracts/BasicFEVMDALN.sol:Basic_FEVM_DALN",
        "label": "_name",
        "offset": 0,
        "slot": "0",
        "type": "t_string_storage"
      },
      {
        "astId": 416,
        "contract": "contracts/BasicFEVMDALN.sol:Basic_FEVM_DALN",
        "label": "_symbol",
        "offset": 0,
        "slot": "1",
        "type": "t_string_storage"
      },
      {
        "astId": 420,
        "contract": "contracts/BasicFEVMDALN.sol:Basic_FEVM_DALN",
        "label": "_owners",
        "offset": 0,
        "slot": "2",
        "type": "t_mapping(t_uint256,t_address)"
      },
      {
        "astId": 424,
        "contract": "contracts/BasicFEVMDALN.sol:Basic_FEVM_DALN",
        "label": "_balances",
        "offset": 0,
        "slot": "3",
        "type": "t_mapping(t_address,t_uint256)"
      },
      {
        "astId": 428,
        "contract": "contracts/BasicFEVMDALN.sol:Basic_FEVM_DALN",
        "label": "_tokenApprovals",
        "offset": 0,
        "slot": "4",
        "type": "t_mapping(t_uint256,t_address)"
      },
      {
        "astId": 434,
        "contract": "contracts/BasicFEVMDALN.sol:Basic_FEVM_DALN",
        "label": "_operatorApprovals",
        "offset": 0,
        "slot": "5",
        "type": "t_mapping(t_address,t_mapping(t_address,t_bool))"
      },
      {
        "astId": 1482,
        "contract": "contracts/BasicFEVMDALN.sol:Basic_FEVM_DALN",
        "label": "_ownedTokens",
        "offset": 0,
        "slot": "6",
        "type": "t_mapping(t_address,t_mapping(t_uint256,t_uint256))"
      },
      {
        "astId": 1486,
        "contract": "contracts/BasicFEVMDALN.sol:Basic_FEVM_DALN",
        "label": "_ownedTokensIndex",
        "offset": 0,
        "slot": "7",
        "type": "t_mapping(t_uint256,t_uint256)"
      },
      {
        "astId": 1489,
        "contract": "contracts/BasicFEVMDALN.sol:Basic_FEVM_DALN",
        "label": "_allTokens",
        "offset": 0,
        "slot": "8",
        "type": "t_array(t_uint256)dyn_storage"
      },
      {
        "astId": 1493,
        "contract": "contracts/BasicFEVMDALN.sol:Basic_FEVM_DALN",
        "label": "_allTokensIndex",
        "offset": 0,
        "slot": "9",
        "type": "t_mapping(t_uint256,t_uint256)"
      },
      {
        "astId": 24,
        "contract": "contracts/BasicFEVMDALN.sol:Basic_FEVM_DALN",
        "label": "_roles",
        "offset": 0,
        "slot": "10",
        "type": "t_mapping(t_bytes32,t_struct(RoleData)19_storage)"
      },
      {
        "astId": 3416,
        "contract": "contracts/BasicFEVMDALN.sol:Basic_FEVM_DALN",
        "label": "_tokenIdTracker",
        "offset": 0,
        "slot": "11",
        "type": "t_struct(Counter)2237_storage"
      },
      {
        "astId": 3419,
        "contract": "contracts/BasicFEVMDALN.sol:Basic_FEVM_DALN",
        "label": "_activeTokensCount",
        "offset": 0,
        "slot": "12",
        "type": "t_struct(Counter)2237_storage"
      },
      {
        "astId": 3424,
        "contract": "contracts/BasicFEVMDALN.sol:Basic_FEVM_DALN",
        "label": "_tokenInfos",
        "offset": 0,
        "slot": "13",
        "type": "t_mapping(t_uint256,t_struct(TokenInfo)3413_storage)"
      }
    ],
    "types": {
      "t_address": {
        "encoding": "inplace",
        "label": "address",
        "numberOfBytes": "20"
      },
      "t_array(t_uint256)dyn_storage": {
        "base": "t_uint256",
        "encoding": "dynamic_array",
        "label": "uint256[]",
        "numberOfBytes": "32"
      },
      "t_bool": {
        "encoding": "inplace",
        "label": "bool",
        "numberOfBytes": "1"
      },
      "t_bytes32": {
        "encoding": "inplace",
        "label": "bytes32",
        "numberOfBytes": "32"
      },
      "t_mapping(t_address,t_bool)": {
        "encoding": "mapping",
        "key": "t_address",
        "label": "mapping(address => bool)",
        "numberOfBytes": "32",
        "value": "t_bool"
      },
      "t_mapping(t_address,t_mapping(t_address,t_bool))": {
        "encoding": "mapping",
        "key": "t_address",
        "label": "mapping(address => mapping(address => bool))",
        "numberOfBytes": "32",
        "value": "t_mapping(t_address,t_bool)"
      },
      "t_mapping(t_address,t_mapping(t_uint256,t_uint256))": {
        "encoding": "mapping",
        "key": "t_address",
        "label": "mapping(address => mapping(uint256 => uint256))",
        "numberOfBytes": "32",
        "value": "t_mapping(t_uint256,t_uint256)"
      },
      "t_mapping(t_address,t_uint256)": {
        "encoding": "mapping",
        "key": "t_address",
        "label": "mapping(address => uint256)",
        "numberOfBytes": "32",
        "value": "t_uint256"
      },
      "t_mapping(t_bytes32,t_struct(RoleData)19_storage)": {
        "encoding": "mapping",
        "key": "t_bytes32",
        "label": "mapping(bytes32 => struct AccessControl.RoleData)",
        "numberOfBytes": "32",
        "value": "t_struct(RoleData)19_storage"
      },
      "t_mapping(t_uint256,t_address)": {
        "encoding": "mapping",
        "key": "t_uint256",
        "label": "mapping(uint256 => address)",
        "numberOfBytes": "32",
        "value": "t_address"
      },
      "t_mapping(t_uint256,t_struct(TokenInfo)3413_storage)": {
        "encoding": "mapping",
        "key": "t_uint256",
        "label": "mapping(uint256 => struct Basic_FEVM_DALN.TokenInfo)",
        "numberOfBytes": "32",
        "value": "t_struct(TokenInfo)3413_storage"
      },
      "t_mapping(t_uint256,t_uint256)": {
        "encoding": "mapping",
        "key": "t_uint256",
        "label": "mapping(uint256 => uint256)",
        "numberOfBytes": "32",
        "value": "t_uint256"
      },
      "t_string_storage": {
        "encoding": "bytes",
        "label": "string",
        "numberOfBytes": "32"
      },
      "t_struct(Counter)2237_storage": {
        "encoding": "inplace",
        "label": "struct Counters.Counter",
        "members": [
          {
            "astId": 2236,
            "contract": "contracts/BasicFEVMDALN.sol:Basic_FEVM_DALN",
            "label": "_value",
            "offset": 0,
            "slot": "0",
            "type": "t_uint256"
          }
        ],
        "numberOfBytes": "32"
      },
      "t_struct(RoleData)19_storage": {
        "encoding": "inplace",
        "label": "struct AccessControl.RoleData",
        "members": [
          {
            "astId": 16,
            "contract": "contracts/BasicFEVMDALN.sol:Basic_FEVM_DALN",
            "label": "members",
            "offset": 0,
            "slot": "0",
            "type": "t_mapping(t_address,t_bool)"
          },
          {
            "astId": 18,
            "contract": "contracts/BasicFEVMDALN.sol:Basic_FEVM_DALN",
            "label": "adminRole",
            "offset": 0,
            "slot": "1",
            "type": "t_bytes32"
          }
        ],
        "numberOfBytes": "64"
      },
      "t_struct(TokenInfo)3413_storage": {
        "encoding": "inplace",
        "label": "struct Basic_FEVM_DALN.TokenInfo",
        "members": [
          {
            "astId": 3404,
            "contract": "contracts/BasicFEVMDALN.sol:Basic_FEVM_DALN",
            "label": "id",
            "offset": 0,
            "slot": "0",
            "type": "t_uint256"
          },
          {
            "astId": 3406,
            "contract": "contracts/BasicFEVMDALN.sol:Basic_FEVM_DALN",
            "label": "cid",
            "offset": 0,
            "slot": "1",
            "type": "t_string_storage"
          },
          {
            "astId": 3408,
            "contract": "contracts/BasicFEVMDALN.sol:Basic_FEVM_DALN",
            "label": "owner",
            "offset": 0,
            "slot": "2",
            "type": "t_address"
          },
          {
            "astId": 3410,
            "contract": "contracts/BasicFEVMDALN.sol:Basic_FEVM_DALN",
            "label": "isDecrypted",
            "offset": 20,
            "slot": "2",
            "type": "t_bool"
          },
          {
            "astId": 3412,
            "contract": "contracts/BasicFEVMDALN.sol:Basic_FEVM_DALN",
            "label": "price",
            "offset": 0,
            "slot": "3",
            "type": "t_uint256"
          }
        ],
        "numberOfBytes": "128"
      },
      "t_uint256": {
        "encoding": "inplace",
        "label": "uint256",
        "numberOfBytes": "32"
      }
    }
  }
}