{
  "address": "0x22dbe0Cf0C7Dce2732F85cb1BD447902BE8a67F7",
  "abi": [
    {
      "inputs": [],
      "stateMutability": "nonpayable",
      "type": "constructor"
    },
    {
      "anonymous": false,
      "inputs": [
        {
          "indexed": true,
          "internalType": "address",
          "name": "owner",
          "type": "address"
        },
        {
          "indexed": true,
          "internalType": "address",
          "name": "approved",
          "type": "address"
        },
        {
          "indexed": true,
          "internalType": "uint256",
          "name": "tokenId",
          "type": "uint256"
        }
      ],
      "name": "Approval",
      "type": "event"
    },
    {
      "anonymous": false,
      "inputs": [
        {
          "indexed": true,
          "internalType": "address",
          "name": "owner",
          "type": "address"
        },
        {
          "indexed": true,
          "internalType": "address",
          "name": "operator",
          "type": "address"
        },
        {
          "indexed": false,
          "internalType": "bool",
          "name": "approved",
          "type": "bool"
        }
      ],
      "name": "ApprovalForAll",
      "type": "event"
    },
    {
      "anonymous": false,
      "inputs": [
        {
          "indexed": true,
          "internalType": "bytes32",
          "name": "role",
          "type": "bytes32"
        },
        {
          "indexed": true,
          "internalType": "bytes32",
          "name": "previousAdminRole",
          "type": "bytes32"
        },
        {
          "indexed": true,
          "internalType": "bytes32",
          "name": "newAdminRole",
          "type": "bytes32"
        }
      ],
      "name": "RoleAdminChanged",
      "type": "event"
    },
    {
      "anonymous": false,
      "inputs": [
        {
          "indexed": true,
          "internalType": "bytes32",
          "name": "role",
          "type": "bytes32"
        },
        {
          "indexed": true,
          "internalType": "address",
          "name": "account",
          "type": "address"
        },
        {
          "indexed": true,
          "internalType": "address",
          "name": "sender",
          "type": "address"
        }
      ],
      "name": "RoleGranted",
      "type": "event"
    },
    {
      "anonymous": false,
      "inputs": [
        {
          "indexed": true,
          "internalType": "bytes32",
          "name": "role",
          "type": "bytes32"
        },
        {
          "indexed": true,
          "internalType": "address",
          "name": "account",
          "type": "address"
        },
        {
          "indexed": true,
          "internalType": "address",
          "name": "sender",
          "type": "address"
        }
      ],
      "name": "RoleRevoked",
      "type": "event"
    },
    {
      "anonymous": false,
      "inputs": [
        {
          "indexed": true,
          "internalType": "address",
          "name": "from",
          "type": "address"
        },
        {
          "indexed": true,
          "internalType": "address",
          "name": "to",
          "type": "address"
        },
        {
          "indexed": true,
          "internalType": "uint256",
          "name": "tokenId",
          "type": "uint256"
        }
      ],
      "name": "Transfer",
      "type": "event"
    },
    {
      "inputs": [],
      "name": "ADMIN_ROLE",
      "outputs": [
        {
          "internalType": "bytes32",
          "name": "",
          "type": "bytes32"
        }
      ],
      "stateMutability": "view",
      "type": "function"
    },
    {
      "inputs": [],
      "name": "DEFAULT_ADMIN_ROLE",
      "outputs": [
        {
          "internalType": "bytes32",
          "name": "",
          "type": "bytes32"
        }
      ],
      "stateMutability": "view",
      "type": "function"
    },
    {
      "inputs": [
        {
          "internalType": "address",
          "name": "to",
          "type": "address"
        },
        {
          "internalType": "uint256",
          "name": "tokenId",
          "type": "uint256"
        }
      ],
      "name": "approve",
      "outputs": [],
      "stateMutability": "nonpayable",
      "type": "function"
    },
    {
      "inputs": [
        {
          "internalType": "address",
          "name": "owner",
          "type": "address"
        }
      ],
      "name": "balanceOf",
      "outputs": [
        {
          "internalType": "uint256",
          "name": "",
          "type": "uint256"
        }
      ],
      "stateMutability": "view",
      "type": "function"
    },
    {
      "inputs": [
        {
          "internalType": "uint256",
          "name": "tokenId",
          "type": "uint256"
        }
      ],
      "name": "burn",
      "outputs": [],
      "stateMutability": "nonpayable",
      "type": "function"
    },
    {
      "inputs": [
        {
          "internalType": "uint256",
          "name": "tokenId",
          "type": "uint256"
        }
      ],
      "name": "getApproved",
      "outputs": [
        {
          "internalType": "address",
          "name": "",
          "type": "address"
        }
      ],
      "stateMutability": "view",
      "type": "function"
    },
    {
      "inputs": [
        {
          "internalType": "bytes32",
          "name": "role",
          "type": "bytes32"
        }
      ],
      "name": "getRoleAdmin",
      "outputs": [
        {
          "internalType": "bytes32",
          "name": "",
          "type": "bytes32"
        }
      ],
      "stateMutability": "view",
      "type": "function"
    },
    {
      "inputs": [
        {
          "internalType": "uint256",
          "name": "tokenId",
          "type": "uint256"
        }
      ],
      "name": "getTokenInfo",
      "outputs": [
        {
          "components": [
            {
              "internalType": "uint256",
              "name": "id",
              "type": "uint256"
            },
            {
              "internalType": "string",
              "name": "cid",
              "type": "string"
            },
            {
              "internalType": "address",
              "name": "owner",
              "type": "address"
            }
          ],
          "internalType": "struct Basic_FEVM_DALN.TokenInfo",
          "name": "",
          "type": "tuple"
        }
      ],
      "stateMutability": "view",
      "type": "function"
    },
    {
      "inputs": [
        {
          "internalType": "uint256",
          "name": "_cursor",
          "type": "uint256"
        },
        {
          "internalType": "uint256",
          "name": "_pageSize",
          "type": "uint256"
        }
      ],
      "name": "getTokenInfos",
      "outputs": [
        {
          "components": [
            {
              "internalType": "uint256",
              "name": "id",
              "type": "uint256"
            },
            {
              "internalType": "string",
              "name": "cid",
              "type": "string"
            },
            {
              "internalType": "address",
              "name": "owner",
              "type": "address"
            }
          ],
          "internalType": "struct Basic_FEVM_DALN.TokenInfo[]",
          "name": "",
          "type": "tuple[]"
        },
        {
          "internalType": "uint256",
          "name": "_nextCursor",
          "type": "uint256"
        },
        {
          "internalType": "bool",
          "name": "_hasMore",
          "type": "bool"
        }
      ],
      "stateMutability": "view",
      "type": "function"
    },
    {
      "inputs": [
        {
          "internalType": "bytes32",
          "name": "role",
          "type": "bytes32"
        },
        {
          "internalType": "address",
          "name": "account",
          "type": "address"
        }
      ],
      "name": "grantRole",
      "outputs": [],
      "stateMutability": "nonpayable",
      "type": "function"
    },
    {
      "inputs": [
        {
          "internalType": "bytes32",
          "name": "role",
          "type": "bytes32"
        },
        {
          "internalType": "address",
          "name": "account",
          "type": "address"
        }
      ],
      "name": "hasRole",
      "outputs": [
        {
          "internalType": "bool",
          "name": "",
          "type": "bool"
        }
      ],
      "stateMutability": "view",
      "type": "function"
    },
    {
      "inputs": [
        {
          "internalType": "address",
          "name": "owner",
          "type": "address"
        },
        {
          "internalType": "address",
          "name": "operator",
          "type": "address"
        }
      ],
      "name": "isApprovedForAll",
      "outputs": [
        {
          "internalType": "bool",
          "name": "",
          "type": "bool"
        }
      ],
      "stateMutability": "view",
      "type": "function"
    },
    {
      "inputs": [],
      "name": "name",
      "outputs": [
        {
          "internalType": "string",
          "name": "",
          "type": "string"
        }
      ],
      "stateMutability": "view",
      "type": "function"
    },
    {
      "inputs": [
        {
          "internalType": "uint256",
          "name": "tokenId",
          "type": "uint256"
        }
      ],
      "name": "ownerOf",
      "outputs": [
        {
          "internalType": "address",
          "name": "",
          "type": "address"
        }
      ],
      "stateMutability": "view",
      "type": "function"
    },
    {
      "inputs": [
        {
          "internalType": "bytes32",
          "name": "role",
          "type": "bytes32"
        },
        {
          "internalType": "address",
          "name": "account",
          "type": "address"
        }
      ],
      "name": "renounceRole",
      "outputs": [],
      "stateMutability": "nonpayable",
      "type": "function"
    },
    {
      "inputs": [
        {
          "internalType": "bytes32",
          "name": "role",
          "type": "bytes32"
        },
        {
          "internalType": "address",
          "name": "account",
          "type": "address"
        }
      ],
      "name": "revokeRole",
      "outputs": [],
      "stateMutability": "nonpayable",
      "type": "function"
    },
    {
      "inputs": [
        {
          "internalType": "string",
          "name": "cid",
          "type": "string"
        }
      ],
      "name": "safeMint",
      "outputs": [],
      "stateMutability": "nonpayable",
      "type": "function"
    },
    {
      "inputs": [
        {
          "internalType": "address",
          "name": "from",
          "type": "address"
        },
        {
          "internalType": "address",
          "name": "to",
          "type": "address"
        },
        {
          "internalType": "uint256",
          "name": "tokenId",
          "type": "uint256"
        }
      ],
      "name": "safeTransferFrom",
      "outputs": [],
      "stateMutability": "nonpayable",
      "type": "function"
    },
    {
      "inputs": [
        {
          "internalType": "address",
          "name": "from",
          "type": "address"
        },
        {
          "internalType": "address",
          "name": "to",
          "type": "address"
        },
        {
          "internalType": "uint256",
          "name": "tokenId",
          "type": "uint256"
        },
        {
          "internalType": "bytes",
          "name": "data",
          "type": "bytes"
        }
      ],
      "name": "safeTransferFrom",
      "outputs": [],
      "stateMutability": "nonpayable",
      "type": "function"
    },
    {
      "inputs": [
        {
          "internalType": "address",
          "name": "operator",
          "type": "address"
        },
        {
          "internalType": "bool",
          "name": "approved",
          "type": "bool"
        }
      ],
      "name": "setApprovalForAll",
      "outputs": [],
      "stateMutability": "nonpayable",
      "type": "function"
    },
    {
      "inputs": [
        {
          "internalType": "bytes4",
          "name": "interfaceId",
          "type": "bytes4"
        }
      ],
      "name": "supportsInterface",
      "outputs": [
        {
          "internalType": "bool",
          "name": "",
          "type": "bool"
        }
      ],
      "stateMutability": "view",
      "type": "function"
    },
    {
      "inputs": [],
      "name": "symbol",
      "outputs": [
        {
          "internalType": "string",
          "name": "",
          "type": "string"
        }
      ],
      "stateMutability": "view",
      "type": "function"
    },
    {
      "inputs": [
        {
          "internalType": "uint256",
          "name": "index",
          "type": "uint256"
        }
      ],
      "name": "tokenByIndex",
      "outputs": [
        {
          "internalType": "uint256",
          "name": "",
          "type": "uint256"
        }
      ],
      "stateMutability": "view",
      "type": "function"
    },
    {
      "inputs": [
        {
          "internalType": "address",
          "name": "owner",
          "type": "address"
        },
        {
          "internalType": "uint256",
          "name": "index",
          "type": "uint256"
        }
      ],
      "name": "tokenOfOwnerByIndex",
      "outputs": [
        {
          "internalType": "uint256",
          "name": "",
          "type": "uint256"
        }
      ],
      "stateMutability": "view",
      "type": "function"
    },
    {
      "inputs": [
        {
          "internalType": "uint256",
          "name": "tokenId",
          "type": "uint256"
        }
      ],
      "name": "tokenURI",
      "outputs": [
        {
          "internalType": "string",
          "name": "",
          "type": "string"
        }
      ],
      "stateMutability": "view",
      "type": "function"
    },
    {
      "inputs": [],
      "name": "totalSupply",
      "outputs": [
        {
          "internalType": "uint256",
          "name": "",
          "type": "uint256"
        }
      ],
      "stateMutability": "view",
      "type": "function"
    },
    {
      "inputs": [
        {
          "internalType": "address",
          "name": "from",
          "type": "address"
        },
        {
          "internalType": "address",
          "name": "to",
          "type": "address"
        },
        {
          "internalType": "uint256",
          "name": "tokenId",
          "type": "uint256"
        }
      ],
      "name": "transferFrom",
      "outputs": [],
      "stateMutability": "nonpayable",
      "type": "function"
    }
  ],
  "transactionHash": "0x47bedfd8e1634c33dcdd1b21966662d98093e536175d5483d4eadd3241fd2325",
  "args": [],
  "numDeployments": 1,
  "solcInputHash": "52c0a5fd38965a78eb3fafb4ad75645c",
  "bytecode": "0x60806040523480156200001157600080fd5b506040518060400160405280600f81526020017f42617369635f4645564d5f44414c4e00000000000000000000000000000000008152506040518060400160405280600481526020017f44414c4e0000000000000000000000000000000000000000000000000000000081525081600090816200008f9190620004e0565b508060019081620000a19190620004e0565b505050620000e57fa49807205ce4d355092ef5a8a18f56e8913cf4a201fbe287825b095693c21775620000d9620000eb60201b60201c565b620000f360201b60201c565b620005c7565b600033905090565b6200010582826200010960201b60201c565b5050565b6200011b8282620001fb60201b60201c565b620001f7576001600a600084815260200190815260200160002060000160008373ffffffffffffffffffffffffffffffffffffffff1673ffffffffffffffffffffffffffffffffffffffff16815260200190815260200160002060006101000a81548160ff0219169083151502179055506200019c620000eb60201b60201c565b73ffffffffffffffffffffffffffffffffffffffff168173ffffffffffffffffffffffffffffffffffffffff16837f2f8788117e7eff1d82e926ec794901d17c78024a50270940304540a733656f0d60405160405180910390a45b5050565b6000600a600084815260200190815260200160002060000160008373ffffffffffffffffffffffffffffffffffffffff1673ffffffffffffffffffffffffffffffffffffffff16815260200190815260200160002060009054906101000a900460ff16905092915050565b600081519050919050565b7f4e487b7100000000000000000000000000000000000000000000000000000000600052604160045260246000fd5b7f4e487b7100000000000000000000000000000000000000000000000000000000600052602260045260246000fd5b60006002820490506001821680620002e857607f821691505b602082108103620002fe57620002fd620002a0565b5b50919050565b60008190508160005260206000209050919050565b60006020601f8301049050919050565b600082821b905092915050565b600060088302620003687fffffffffffffffffffffffffffffffffffffffffffffffffffffffffffffffff8262000329565b62000374868362000329565b95508019841693508086168417925050509392505050565b6000819050919050565b6000819050919050565b6000620003c1620003bb620003b5846200038c565b62000396565b6200038c565b9050919050565b6000819050919050565b620003dd83620003a0565b620003f5620003ec82620003c8565b84845462000336565b825550505050565b600090565b6200040c620003fd565b62000419818484620003d2565b505050565b5b8181101562000441576200043560008262000402565b6001810190506200041f565b5050565b601f82111562000490576200045a8162000304565b620004658462000319565b8101602085101562000475578190505b6200048d620004848562000319565b8301826200041e565b50505b505050565b600082821c905092915050565b6000620004b56000198460080262000495565b1980831691505092915050565b6000620004d08383620004a2565b9150826002028217905092915050565b620004eb8262000266565b67ffffffffffffffff81111562000507576200050662000271565b5b620005138254620002cf565b6200052082828562000445565b600060209050601f83116001811462000558576000841562000543578287015190505b6200054f8582620004c2565b865550620005bf565b601f198416620005688662000304565b60005b8281101562000592578489015182556001820191506020850194506020810190506200056b565b86831015620005b25784890151620005ae601f891682620004a2565b8355505b6001600288020188555050505b505050505050565b614a5580620005d76000396000f3fe608060405234801561001057600080fd5b50600436106101a95760003560e01c80636352211e116100f9578063a217fddf11610097578063c32fc43c11610071578063c32fc43c146104f0578063c87b56dd14610522578063d547741f14610552578063e985e9c51461056e576101a9565b8063a217fddf1461049a578063a22cb465146104b8578063b88d4fde146104d4576101a9565b806375b238fc116100d357806375b238fc146103fe5780638c7a63ae1461041c57806391d148541461044c57806395d89b411461047c576101a9565b80636352211e14610382578063695850fb146103b257806370a08231146103ce576101a9565b8063248a9ca31161016657806336568abe1161014057806336568abe146102fe57806342842e0e1461031a57806342966c68146103365780634f6ccce714610352576101a9565b8063248a9ca3146102825780632f2ff15d146102b25780632f745c59146102ce576101a9565b806301ffc9a7146101ae57806306fdde03146101de578063081812fc146101fc578063095ea7b31461022c57806318160ddd1461024857806323b872dd14610266575b600080fd5b6101c860048036038101906101c39190612e87565b61059e565b6040516101d59190612ecf565b60405180910390f35b6101e66105b0565b6040516101f39190612f7a565b60405180910390f35b61021660048036038101906102119190612fd2565b610642565b6040516102239190613040565b60405180910390f35b61024660048036038101906102419190613087565b610688565b005b61025061079f565b60405161025d91906130d6565b60405180910390f35b610280600480360381019061027b91906130f1565b6107ac565b005b61029c6004803603810190610297919061317a565b61080c565b6040516102a991906131b6565b60405180910390f35b6102cc60048036038101906102c791906131d1565b61082c565b005b6102e860048036038101906102e39190613087565b61084d565b6040516102f591906130d6565b60405180910390f35b610318600480360381019061031391906131d1565b6108f2565b005b610334600480360381019061032f91906130f1565b610975565b005b610350600480360381019061034b9190612fd2565b610995565b005b61036c60048036038101906103679190612fd2565b6109f1565b60405161037991906130d6565b60405180910390f35b61039c60048036038101906103979190612fd2565b610a62565b6040516103a99190613040565b60405180910390f35b6103cc60048036038101906103c79190613346565b610ae8565b005b6103e860048036038101906103e3919061338f565b610c26565b6040516103f591906130d6565b60405180910390f35b610406610cdd565b60405161041391906131b6565b60405180910390f35b61043660048036038101906104319190612fd2565b610d01565b6040516104439190613474565b60405180910390f35b610466600480360381019061046191906131d1565b610f4b565b6040516104739190612ecf565b60405180910390f35b610484610fb6565b6040516104919190612f7a565b60405180910390f35b6104a2611048565b6040516104af91906131b6565b60405180910390f35b6104d260048036038101906104cd91906134c2565b61104f565b005b6104ee60048036038101906104e991906135a3565b611065565b005b61050a60048036038101906105059190613626565b6110c7565b60405161051993929190613778565b60405180910390f35b61053c60048036038101906105379190612fd2565b611522565b6040516105499190612f7a565b60405180910390f35b61056c600480360381019061056791906131d1565b61158a565b005b610588600480360381019061058391906137b6565b6115ab565b6040516105959190612ecf565b60405180910390f35b60006105a98261163f565b9050919050565b6060600080546105bf90613825565b80601f01602080910402602001604051908101604052809291908181526020018280546105eb90613825565b80156106385780601f1061060d57610100808354040283529160200191610638565b820191906000526020600020905b81548152906001019060200180831161061b57829003601f168201915b5050505050905090565b600061064d826116b9565b6004600083815260200190815260200160002060009054906101000a900473ffffffffffffffffffffffffffffffffffffffff169050919050565b600061069382610a62565b90508073ffffffffffffffffffffffffffffffffffffffff168373ffffffffffffffffffffffffffffffffffffffff1603610703576040517f08c379a00000000000000000000000000000000000000000000000000000000081526004016106fa906138c8565b60405180910390fd5b8073ffffffffffffffffffffffffffffffffffffffff16610722611704565b73ffffffffffffffffffffffffffffffffffffffff16148061075157506107508161074b611704565b6115ab565b5b610790576040517f08c379a00000000000000000000000000000000000000000000000000000000081526004016107879061395a565b60405180910390fd5b61079a838361170c565b505050565b6000600880549050905090565b6107bd6107b7611704565b826117c5565b6107fc576040517f08c379a00000000000000000000000000000000000000000000000000000000081526004016107f3906139ec565b60405180910390fd5b61080783838361185a565b505050565b6000600a6000838152602001908152602001600020600101549050919050565b6108358261080c565b61083e81611b53565b6108488383611b67565b505050565b600061085883610c26565b8210610899576040517f08c379a000000000000000000000000000000000000000000000000000000000815260040161089090613a7e565b60405180910390fd5b600660008473ffffffffffffffffffffffffffffffffffffffff1673ffffffffffffffffffffffffffffffffffffffff168152602001908152602001600020600083815260200190815260200160002054905092915050565b6108fa611704565b73ffffffffffffffffffffffffffffffffffffffff168173ffffffffffffffffffffffffffffffffffffffff1614610967576040517f08c379a000000000000000000000000000000000000000000000000000000000815260040161095e90613b10565b60405180910390fd5b6109718282611c48565b5050565b61099083838360405180602001604052806000815250611065565b505050565b6109a66109a0611704565b826117c5565b6109e5576040517f08c379a00000000000000000000000000000000000000000000000000000000081526004016109dc906139ec565b60405180910390fd5b6109ee81611d2a565b50565b60006109fb61079f565b8210610a3c576040517f08c379a0000000000000000000000000000000000000000000000000000000008152600401610a3390613ba2565b60405180910390fd5b60088281548110610a5057610a4f613bc2565b5b90600052602060002001549050919050565b600080610a6e83611d95565b9050600073ffffffffffffffffffffffffffffffffffffffff168173ffffffffffffffffffffffffffffffffffffffff1603610adf576040517f08c379a0000000000000000000000000000000000000000000000000000000008152600401610ad690613c3d565b60405180910390fd5b80915050919050565b6000610afa610af5611704565b610c26565b14610b3a576040517f08c379a0000000000000000000000000000000000000000000000000000000008152600401610b3190613ca9565b60405180910390fd5b6000610b46600b611dd2565b9050610b59610b53611704565b82611de0565b6040518060600160405280828152602001838152602001610b78611704565b73ffffffffffffffffffffffffffffffffffffffff16815250600d6000838152602001908152602001600020600082015181600001556020820151816001019081610bc39190613e75565b5060408201518160020160006101000a81548173ffffffffffffffffffffffffffffffffffffffff021916908373ffffffffffffffffffffffffffffffffffffffff160217905550905050610c18600b611dfe565b610c22600c611dfe565b5050565b60008073ffffffffffffffffffffffffffffffffffffffff168273ffffffffffffffffffffffffffffffffffffffff1603610c96576040517f08c379a0000000000000000000000000000000000000000000000000000000008152600401610c8d90613fb9565b60405180910390fd5b600360008373ffffffffffffffffffffffffffffffffffffffff1673ffffffffffffffffffffffffffffffffffffffff168152602001908152602001600020549050919050565b7fa49807205ce4d355092ef5a8a18f56e8913cf4a201fbe287825b095693c2177581565b610d09612d87565b610d1282611e14565b610d51576040517f08c379a0000000000000000000000000000000000000000000000000000000008152600401610d4890614025565b60405180910390fd5b610d827fa49807205ce4d355092ef5a8a18f56e8913cf4a201fbe287825b095693c21775610d7d611704565b610f4b565b80610df55750600d600083815260200190815260200160002060020160009054906101000a900473ffffffffffffffffffffffffffffffffffffffff1673ffffffffffffffffffffffffffffffffffffffff16610ddd611704565b73ffffffffffffffffffffffffffffffffffffffff16145b610e34576040517f08c379a0000000000000000000000000000000000000000000000000000000008152600401610e2b906140b7565b60405180910390fd5b600d600083815260200190815260200160002060405180606001604052908160008201548152602001600182018054610e6c90613825565b80601f0160208091040260200160405190810160405280929190818152602001828054610e9890613825565b8015610ee55780601f10610eba57610100808354040283529160200191610ee5565b820191906000526020600020905b815481529060010190602001808311610ec857829003601f168201915b505050505081526020016002820160009054906101000a900473ffffffffffffffffffffffffffffffffffffffff1673ffffffffffffffffffffffffffffffffffffffff1673ffffffffffffffffffffffffffffffffffffffff16815250509050919050565b6000600a600084815260200190815260200160002060000160008373ffffffffffffffffffffffffffffffffffffffff1673ffffffffffffffffffffffffffffffffffffffff16815260200190815260200160002060009054906101000a900460ff16905092915050565b606060018054610fc590613825565b80601f0160208091040260200160405190810160405280929190818152602001828054610ff190613825565b801561103e5780601f106110135761010080835404028352916020019161103e565b820191906000526020600020905b81548152906001019060200180831161102157829003601f168201915b5050505050905090565b6000801b81565b61106161105a611704565b8383611e55565b5050565b611076611070611704565b836117c5565b6110b5576040517f08c379a00000000000000000000000000000000000000000000000000000000081526004016110ac906139ec565b60405180910390fd5b6110c184848484611fc1565b50505050565b60606000806110fd7fa49807205ce4d355092ef5a8a18f56e8913cf4a201fbe287825b095693c217756110f8611704565b610f4b565b61113c576040517f08c379a000000000000000000000000000000000000000000000000000000000815260040161113390614123565b60405180910390fd5b6000611148600b611dd2565b90506000611156600c611dd2565b905080871061119a576040517f08c379a00000000000000000000000000000000000000000000000000000000081526004016111919061418f565b60405180910390fd5b600086116111dd576040517f08c379a00000000000000000000000000000000000000000000000000000000081526004016111d4906141fb565b60405180910390fd5b60008211611220576040517f08c379a000000000000000000000000000000000000000000000000000000000815260040161121790614267565b60405180910390fd5b600060018761122f91906142b6565b905060008167ffffffffffffffff81111561124d5761124c61321b565b5b60405190808252806020026020018201604052801561128657816020015b611273612d87565b81526020019060019003908161126b5790505b5090506000805b858110156114025761129e81611e14565b156113ef578a81106113ef57600d6000828152602001908152602001600020604051806060016040529081600082015481526020016001820180546112e290613825565b80601f016020809104026020016040519081016040528092919081815260200182805461130e90613825565b801561135b5780601f106113305761010080835404028352916020019161135b565b820191906000526020600020905b81548152906001019060200180831161133e57829003601f168201915b505050505081526020016002820160009054906101000a900473ffffffffffffffffffffffffffffffffffffffff1673ffffffffffffffffffffffffffffffffffffffff1673ffffffffffffffffffffffffffffffffffffffff16815250508383815181106113cd576113cc613bc2565b5b602002602001018190525081806113e3906142ea565b92505083820315611402575b80806113fa906142ea565b91505061128d565b5060008982116114125781611414565b895b905060008167ffffffffffffffff8111156114325761143161321b565b5b60405190808252806020026020018201604052801561146b57816020015b611458612d87565b8152602001906001900390816114505790505b50905060005b828110156114c55784818151811061148c5761148b613bc2565b5b60200260200101518282815181106114a7576114a6613bc2565b5b602002602001018190525080806114bd906142ea565b915050611471565b5060008b841190506000816114fa577fffffffffffffffffffffffffffffffffffffffffffffffffffffffffffffffff611507565b838e61150691906142b6565b5b90508281839b509b509b505050505050505050509250925092565b606061152d826116b9565b600061153761201d565b905060008151116115575760405180602001604052806000815250611582565b8061156184612034565b60405160200161157292919061436e565b6040516020818303038152906040525b915050919050565b6115938261080c565b61159c81611b53565b6115a68383611c48565b505050565b6000600560008473ffffffffffffffffffffffffffffffffffffffff1673ffffffffffffffffffffffffffffffffffffffff16815260200190815260200160002060008373ffffffffffffffffffffffffffffffffffffffff1673ffffffffffffffffffffffffffffffffffffffff16815260200190815260200160002060009054906101000a900460ff16905092915050565b60007f7965db0b000000000000000000000000000000000000000000000000000000007bffffffffffffffffffffffffffffffffffffffffffffffffffffffff1916827bffffffffffffffffffffffffffffffffffffffffffffffffffffffff191614806116b257506116b182612102565b5b9050919050565b6116c281611e14565b611701576040517f08c379a00000000000000000000000000000000000000000000000000000000081526004016116f890613c3d565b60405180910390fd5b50565b600033905090565b816004600083815260200190815260200160002060006101000a81548173ffffffffffffffffffffffffffffffffffffffff021916908373ffffffffffffffffffffffffffffffffffffffff160217905550808273ffffffffffffffffffffffffffffffffffffffff1661177f83610a62565b73ffffffffffffffffffffffffffffffffffffffff167f8c5be1e5ebec7d5bd14f71427d1e84f3dd0314c0f7b2291e5b200ac8c7c3b92560405160405180910390a45050565b6000806117d183610a62565b90508073ffffffffffffffffffffffffffffffffffffffff168473ffffffffffffffffffffffffffffffffffffffff161480611813575061181281856115ab565b5b8061185157508373ffffffffffffffffffffffffffffffffffffffff1661183984610642565b73ffffffffffffffffffffffffffffffffffffffff16145b91505092915050565b8273ffffffffffffffffffffffffffffffffffffffff1661187a82610a62565b73ffffffffffffffffffffffffffffffffffffffff16146118d0576040517f08c379a00000000000000000000000000000000000000000000000000000000081526004016118c790614404565b60405180910390fd5b600073ffffffffffffffffffffffffffffffffffffffff168273ffffffffffffffffffffffffffffffffffffffff160361193f576040517f08c379a000000000000000000000000000000000000000000000000000000000815260040161193690614496565b60405180910390fd5b61194c838383600161217c565b8273ffffffffffffffffffffffffffffffffffffffff1661196c82610a62565b73ffffffffffffffffffffffffffffffffffffffff16146119c2576040517f08c379a00000000000000000000000000000000000000000000000000000000081526004016119b990614404565b60405180910390fd5b6004600082815260200190815260200160002060006101000a81549073ffffffffffffffffffffffffffffffffffffffff02191690556001600360008573ffffffffffffffffffffffffffffffffffffffff1673ffffffffffffffffffffffffffffffffffffffff168152602001908152602001600020600082825403925050819055506001600360008473ffffffffffffffffffffffffffffffffffffffff1673ffffffffffffffffffffffffffffffffffffffff16815260200190815260200160002060008282540192505081905550816002600083815260200190815260200160002060006101000a81548173ffffffffffffffffffffffffffffffffffffffff021916908373ffffffffffffffffffffffffffffffffffffffff160217905550808273ffffffffffffffffffffffffffffffffffffffff168473ffffffffffffffffffffffffffffffffffffffff167fddf252ad1be2c89b69c2b068fc378daa952ba7f163c4a11628f55a4df523b3ef60405160405180910390a4611b4e8383836001612228565b505050565b611b6481611b5f611704565b61222e565b50565b611b718282610f4b565b611c44576001600a600084815260200190815260200160002060000160008373ffffffffffffffffffffffffffffffffffffffff1673ffffffffffffffffffffffffffffffffffffffff16815260200190815260200160002060006101000a81548160ff021916908315150217905550611be9611704565b73ffffffffffffffffffffffffffffffffffffffff168173ffffffffffffffffffffffffffffffffffffffff16837f2f8788117e7eff1d82e926ec794901d17c78024a50270940304540a733656f0d60405160405180910390a45b5050565b611c528282610f4b565b15611d26576000600a600084815260200190815260200160002060000160008373ffffffffffffffffffffffffffffffffffffffff1673ffffffffffffffffffffffffffffffffffffffff16815260200190815260200160002060006101000a81548160ff021916908315150217905550611ccb611704565b73ffffffffffffffffffffffffffffffffffffffff168173ffffffffffffffffffffffffffffffffffffffff16837ff6391f5c32d9c69d2a47ea670b442974b53935d1edc7fd64eb21e047a839171b60405160405180910390a45b5050565b611d33816122b3565b600d6000828152602001908152602001600020600080820160009055600182016000611d5f9190612dbe565b6002820160006101000a81549073ffffffffffffffffffffffffffffffffffffffff02191690555050611d92600c612401565b50565b60006002600083815260200190815260200160002060009054906101000a900473ffffffffffffffffffffffffffffffffffffffff169050919050565b600081600001549050919050565b611dfa82826040518060200160405280600081525061245d565b5050565b6001816000016000828254019250508190555050565b60008073ffffffffffffffffffffffffffffffffffffffff16611e3683611d95565b73ffffffffffffffffffffffffffffffffffffffff1614159050919050565b8173ffffffffffffffffffffffffffffffffffffffff168373ffffffffffffffffffffffffffffffffffffffff1603611ec3576040517f08c379a0000000000000000000000000000000000000000000000000000000008152600401611eba90614502565b60405180910390fd5b80600560008573ffffffffffffffffffffffffffffffffffffffff1673ffffffffffffffffffffffffffffffffffffffff16815260200190815260200160002060008473ffffffffffffffffffffffffffffffffffffffff1673ffffffffffffffffffffffffffffffffffffffff16815260200190815260200160002060006101000a81548160ff0219169083151502179055508173ffffffffffffffffffffffffffffffffffffffff168373ffffffffffffffffffffffffffffffffffffffff167f17307eab39ab6107e8899845ad3d59bd9653f200f220920489ca2b5937696c3183604051611fb49190612ecf565b60405180910390a3505050565b611fcc84848461185a565b611fd8848484846124b8565b612017576040517f08c379a000000000000000000000000000000000000000000000000000000000815260040161200e90614594565b60405180910390fd5b50505050565b606060405180602001604052806000815250905090565b6060600060016120438461263f565b01905060008167ffffffffffffffff8111156120625761206161321b565b5b6040519080825280601f01601f1916602001820160405280156120945781602001600182028036833780820191505090505b509050600082602001820190505b6001156120f7578080600190039150507f3031323334353637383961626364656600000000000000000000000000000000600a86061a8153600a85816120eb576120ea6145b4565b5b049450600085036120a2575b819350505050919050565b60007f780e9d63000000000000000000000000000000000000000000000000000000007bffffffffffffffffffffffffffffffffffffffffffffffffffffffff1916827bffffffffffffffffffffffffffffffffffffffffffffffffffffffff19161480612175575061217482612792565b5b9050919050565b600073ffffffffffffffffffffffffffffffffffffffff168473ffffffffffffffffffffffffffffffffffffffff1614806121e35750600073ffffffffffffffffffffffffffffffffffffffff168373ffffffffffffffffffffffffffffffffffffffff16145b612222576040517f08c379a00000000000000000000000000000000000000000000000000000000081526004016122199061462f565b60405180910390fd5b50505050565b50505050565b6122388282610f4b565b6122af5761224581612874565b6122538360001c60206128a1565b6040516020016122649291906146e7565b6040516020818303038152906040526040517f08c379a00000000000000000000000000000000000000000000000000000000081526004016122a69190612f7a565b60405180910390fd5b5050565b60006122be82610a62565b90506122ce81600084600161217c565b6122d782610a62565b90506004600083815260200190815260200160002060006101000a81549073ffffffffffffffffffffffffffffffffffffffff02191690556001600360008373ffffffffffffffffffffffffffffffffffffffff1673ffffffffffffffffffffffffffffffffffffffff168152602001908152602001600020600082825403925050819055506002600083815260200190815260200160002060006101000a81549073ffffffffffffffffffffffffffffffffffffffff021916905581600073ffffffffffffffffffffffffffffffffffffffff168273ffffffffffffffffffffffffffffffffffffffff167fddf252ad1be2c89b69c2b068fc378daa952ba7f163c4a11628f55a4df523b3ef60405160405180910390a46123fd816000846001612228565b5050565b6000816000015490506000811161244d576040517f08c379a00000000000000000000000000000000000000000000000000000000081526004016124449061476d565b60405180910390fd5b6001810382600001819055505050565b6124678383612add565b61247460008484846124b8565b6124b3576040517f08c379a00000000000000000000000000000000000000000000000000000000081526004016124aa90614594565b60405180910390fd5b505050565b60006124d98473ffffffffffffffffffffffffffffffffffffffff16612cfa565b15612632578373ffffffffffffffffffffffffffffffffffffffff1663150b7a02612502611704565b8786866040518563ffffffff1660e01b815260040161252494939291906147e2565b6020604051808303816000875af192505050801561256057506040513d601f19601f8201168201806040525081019061255d9190614843565b60015b6125e2573d8060008114612590576040519150601f19603f3d011682016040523d82523d6000602084013e612595565b606091505b5060008151036125da576040517f08c379a00000000000000000000000000000000000000000000000000000000081526004016125d190614594565b60405180910390fd5b805181602001fd5b63150b7a0260e01b7bffffffffffffffffffffffffffffffffffffffffffffffffffffffff1916817bffffffffffffffffffffffffffffffffffffffffffffffffffffffff191614915050612637565b600190505b949350505050565b600080600090507a184f03e93ff9f4daa797ed6e38ed64bf6a1f010000000000000000831061269d577a184f03e93ff9f4daa797ed6e38ed64bf6a1f0100000000000000008381612693576126926145b4565b5b0492506040810190505b6d04ee2d6d415b85acef810000000083106126da576d04ee2d6d415b85acef810000000083816126d0576126cf6145b4565b5b0492506020810190505b662386f26fc10000831061270957662386f26fc1000083816126ff576126fe6145b4565b5b0492506010810190505b6305f5e1008310612732576305f5e1008381612728576127276145b4565b5b0492506008810190505b612710831061275757612710838161274d5761274c6145b4565b5b0492506004810190505b6064831061277a57606483816127705761276f6145b4565b5b0492506002810190505b600a8310612789576001810190505b80915050919050565b60007f80ac58cd000000000000000000000000000000000000000000000000000000007bffffffffffffffffffffffffffffffffffffffffffffffffffffffff1916827bffffffffffffffffffffffffffffffffffffffffffffffffffffffff1916148061285d57507f5b5e139f000000000000000000000000000000000000000000000000000000007bffffffffffffffffffffffffffffffffffffffffffffffffffffffff1916827bffffffffffffffffffffffffffffffffffffffffffffffffffffffff1916145b8061286d575061286c82612d1d565b5b9050919050565b606061289a8273ffffffffffffffffffffffffffffffffffffffff16601460ff166128a1565b9050919050565b6060600060028360026128b49190614870565b6128be91906142b6565b67ffffffffffffffff8111156128d7576128d661321b565b5b6040519080825280601f01601f1916602001820160405280156129095781602001600182028036833780820191505090505b5090507f30000000000000000000000000000000000000000000000000000000000000008160008151811061294157612940613bc2565b5b60200101907effffffffffffffffffffffffffffffffffffffffffffffffffffffffffffff1916908160001a9053507f7800000000000000000000000000000000000000000000000000000000000000816001815181106129a5576129a4613bc2565b5b60200101907effffffffffffffffffffffffffffffffffffffffffffffffffffffffffffff1916908160001a905350600060018460026129e59190614870565b6129ef91906142b6565b90505b6001811115612a8f577f3031323334353637383961626364656600000000000000000000000000000000600f861660108110612a3157612a30613bc2565b5b1a60f81b828281518110612a4857612a47613bc2565b5b60200101907effffffffffffffffffffffffffffffffffffffffffffffffffffffffffffff1916908160001a905350600485901c945080612a88906148b2565b90506129f2565b5060008414612ad3576040517f08c379a0000000000000000000000000000000000000000000000000000000008152600401612aca90614927565b60405180910390fd5b8091505092915050565b600073ffffffffffffffffffffffffffffffffffffffff168273ffffffffffffffffffffffffffffffffffffffff1603612b4c576040517f08c379a0000000000000000000000000000000000000000000000000000000008152600401612b4390614993565b60405180910390fd5b612b5581611e14565b15612b95576040517f08c379a0000000000000000000000000000000000000000000000000000000008152600401612b8c906149ff565b60405180910390fd5b612ba360008383600161217c565b612bac81611e14565b15612bec576040517f08c379a0000000000000000000000000000000000000000000000000000000008152600401612be3906149ff565b60405180910390fd5b6001600360008473ffffffffffffffffffffffffffffffffffffffff1673ffffffffffffffffffffffffffffffffffffffff16815260200190815260200160002060008282540192505081905550816002600083815260200190815260200160002060006101000a81548173ffffffffffffffffffffffffffffffffffffffff021916908373ffffffffffffffffffffffffffffffffffffffff160217905550808273ffffffffffffffffffffffffffffffffffffffff16600073ffffffffffffffffffffffffffffffffffffffff167fddf252ad1be2c89b69c2b068fc378daa952ba7f163c4a11628f55a4df523b3ef60405160405180910390a4612cf6600083836001612228565b5050565b6000808273ffffffffffffffffffffffffffffffffffffffff163b119050919050565b60007f01ffc9a7000000000000000000000000000000000000000000000000000000007bffffffffffffffffffffffffffffffffffffffffffffffffffffffff1916827bffffffffffffffffffffffffffffffffffffffffffffffffffffffff1916149050919050565b60405180606001604052806000815260200160608152602001600073ffffffffffffffffffffffffffffffffffffffff1681525090565b508054612dca90613825565b6000825580601f10612ddc5750612dfb565b601f016020900490600052602060002090810190612dfa9190612dfe565b5b50565b5b80821115612e17576000816000905550600101612dff565b5090565b6000604051905090565b600080fd5b600080fd5b60007fffffffff0000000000000000000000000000000000000000000000000000000082169050919050565b612e6481612e2f565b8114612e6f57600080fd5b50565b600081359050612e8181612e5b565b92915050565b600060208284031215612e9d57612e9c612e25565b5b6000612eab84828501612e72565b91505092915050565b60008115159050919050565b612ec981612eb4565b82525050565b6000602082019050612ee46000830184612ec0565b92915050565b600081519050919050565b600082825260208201905092915050565b60005b83811015612f24578082015181840152602081019050612f09565b60008484015250505050565b6000601f19601f8301169050919050565b6000612f4c82612eea565b612f568185612ef5565b9350612f66818560208601612f06565b612f6f81612f30565b840191505092915050565b60006020820190508181036000830152612f948184612f41565b905092915050565b6000819050919050565b612faf81612f9c565b8114612fba57600080fd5b50565b600081359050612fcc81612fa6565b92915050565b600060208284031215612fe857612fe7612e25565b5b6000612ff684828501612fbd565b91505092915050565b600073ffffffffffffffffffffffffffffffffffffffff82169050919050565b600061302a82612fff565b9050919050565b61303a8161301f565b82525050565b60006020820190506130556000830184613031565b92915050565b6130648161301f565b811461306f57600080fd5b50565b6000813590506130818161305b565b92915050565b6000806040838503121561309e5761309d612e25565b5b60006130ac85828601613072565b92505060206130bd85828601612fbd565b9150509250929050565b6130d081612f9c565b82525050565b60006020820190506130eb60008301846130c7565b92915050565b60008060006060848603121561310a57613109612e25565b5b600061311886828701613072565b935050602061312986828701613072565b925050604061313a86828701612fbd565b9150509250925092565b6000819050919050565b61315781613144565b811461316257600080fd5b50565b6000813590506131748161314e565b92915050565b6000602082840312156131905761318f612e25565b5b600061319e84828501613165565b91505092915050565b6131b081613144565b82525050565b60006020820190506131cb60008301846131a7565b92915050565b600080604083850312156131e8576131e7612e25565b5b60006131f685828601613165565b925050602061320785828601613072565b9150509250929050565b600080fd5b600080fd5b7f4e487b7100000000000000000000000000000000000000000000000000000000600052604160045260246000fd5b61325382612f30565b810181811067ffffffffffffffff821117156132725761327161321b565b5b80604052505050565b6000613285612e1b565b9050613291828261324a565b919050565b600067ffffffffffffffff8211156132b1576132b061321b565b5b6132ba82612f30565b9050602081019050919050565b82818337600083830152505050565b60006132e96132e484613296565b61327b565b90508281526020810184848401111561330557613304613216565b5b6133108482856132c7565b509392505050565b600082601f83011261332d5761332c613211565b5b813561333d8482602086016132d6565b91505092915050565b60006020828403121561335c5761335b612e25565b5b600082013567ffffffffffffffff81111561337a57613379612e2a565b5b61338684828501613318565b91505092915050565b6000602082840312156133a5576133a4612e25565b5b60006133b384828501613072565b91505092915050565b6133c581612f9c565b82525050565b600082825260208201905092915050565b60006133e782612eea565b6133f181856133cb565b9350613401818560208601612f06565b61340a81612f30565b840191505092915050565b61341e8161301f565b82525050565b600060608301600083015161343c60008601826133bc565b506020830151848203602086015261345482826133dc565b91505060408301516134696040860182613415565b508091505092915050565b6000602082019050818103600083015261348e8184613424565b905092915050565b61349f81612eb4565b81146134aa57600080fd5b50565b6000813590506134bc81613496565b92915050565b600080604083850312156134d9576134d8612e25565b5b60006134e785828601613072565b92505060206134f8858286016134ad565b9150509250929050565b600067ffffffffffffffff82111561351d5761351c61321b565b5b61352682612f30565b9050602081019050919050565b600061354661354184613502565b61327b565b90508281526020810184848401111561356257613561613216565b5b61356d8482856132c7565b509392505050565b600082601f83011261358a57613589613211565b5b813561359a848260208601613533565b91505092915050565b600080600080608085870312156135bd576135bc612e25565b5b60006135cb87828801613072565b94505060206135dc87828801613072565b93505060406135ed87828801612fbd565b925050606085013567ffffffffffffffff81111561360e5761360d612e2a565b5b61361a87828801613575565b91505092959194509250565b6000806040838503121561363d5761363c612e25565b5b600061364b85828601612fbd565b925050602061365c85828601612fbd565b9150509250929050565b600081519050919050565b600082825260208201905092915050565b6000819050602082019050919050565b60006060830160008301516136aa60008601826133bc565b50602083015184820360208601526136c282826133dc565b91505060408301516136d76040860182613415565b508091505092915050565b60006136ee8383613692565b905092915050565b6000602082019050919050565b600061370e82613666565b6137188185613671565b93508360208202850161372a85613682565b8060005b85811015613766578484038952815161374785826136e2565b9450613752836136f6565b925060208a0199505060018101905061372e565b50829750879550505050505092915050565b600060608201905081810360008301526137928186613703565b90506137a160208301856130c7565b6137ae6040830184612ec0565b949350505050565b600080604083850312156137cd576137cc612e25565b5b60006137db85828601613072565b92505060206137ec85828601613072565b9150509250929050565b7f4e487b7100000000000000000000000000000000000000000000000000000000600052602260045260246000fd5b6000600282049050600182168061383d57607f821691505b6020821081036138505761384f6137f6565b5b50919050565b7f4552433732313a20617070726f76616c20746f2063757272656e74206f776e6560008201527f7200000000000000000000000000000000000000000000000000000000000000602082015250565b60006138b2602183612ef5565b91506138bd82613856565b604082019050919050565b600060208201905081810360008301526138e1816138a5565b9050919050565b7f4552433732313a20617070726f76652063616c6c6572206973206e6f7420746f60008201527f6b656e206f776e6572206f7220617070726f76656420666f7220616c6c000000602082015250565b6000613944603d83612ef5565b915061394f826138e8565b604082019050919050565b6000602082019050818103600083015261397381613937565b9050919050565b7f4552433732313a2063616c6c6572206973206e6f7420746f6b656e206f776e6560008201527f72206f7220617070726f76656400000000000000000000000000000000000000602082015250565b60006139d6602d83612ef5565b91506139e18261397a565b604082019050919050565b60006020820190508181036000830152613a05816139c9565b9050919050565b7f455243373231456e756d657261626c653a206f776e657220696e646578206f7560008201527f74206f6620626f756e6473000000000000000000000000000000000000000000602082015250565b6000613a68602b83612ef5565b9150613a7382613a0c565b604082019050919050565b60006020820190508181036000830152613a9781613a5b565b9050919050565b7f416363657373436f6e74726f6c3a2063616e206f6e6c792072656e6f756e636560008201527f20726f6c657320666f722073656c660000000000000000000000000000000000602082015250565b6000613afa602f83612ef5565b9150613b0582613a9e565b604082019050919050565b60006020820190508181036000830152613b2981613aed565b9050919050565b7f455243373231456e756d657261626c653a20676c6f62616c20696e646578206f60008201527f7574206f6620626f756e64730000000000000000000000000000000000000000602082015250565b6000613b8c602c83612ef5565b9150613b9782613b30565b604082019050919050565b60006020820190508181036000830152613bbb81613b7f565b9050919050565b7f4e487b7100000000000000000000000000000000000000000000000000000000600052603260045260246000fd5b7f4552433732313a20696e76616c696420746f6b656e2049440000000000000000600082015250565b6000613c27601883612ef5565b9150613c3282613bf1565b602082019050919050565b60006020820190508181036000830152613c5681613c1a565b9050919050565b7f4f6e6c7920312053425420706572206164647265737320616c6c6f7765640000600082015250565b6000613c93601e83612ef5565b9150613c9e82613c5d565b602082019050919050565b60006020820190508181036000830152613cc281613c86565b9050919050565b60008190508160005260206000209050919050565b60006020601f8301049050919050565b600082821b905092915050565b600060088302613d2b7fffffffffffffffffffffffffffffffffffffffffffffffffffffffffffffffff82613cee565b613d358683613cee565b95508019841693508086168417925050509392505050565b6000819050919050565b6000613d72613d6d613d6884612f9c565b613d4d565b612f9c565b9050919050565b6000819050919050565b613d8c83613d57565b613da0613d9882613d79565b848454613cfb565b825550505050565b600090565b613db5613da8565b613dc0818484613d83565b505050565b5b81811015613de457613dd9600082613dad565b600181019050613dc6565b5050565b601f821115613e2957613dfa81613cc9565b613e0384613cde565b81016020851015613e12578190505b613e26613e1e85613cde565b830182613dc5565b50505b505050565b600082821c905092915050565b6000613e4c60001984600802613e2e565b1980831691505092915050565b6000613e658383613e3b565b9150826002028217905092915050565b613e7e82612eea565b67ffffffffffffffff811115613e9757613e9661321b565b5b613ea18254613825565b613eac828285613de8565b600060209050601f831160018114613edf5760008415613ecd578287015190505b613ed78582613e59565b865550613f3f565b601f198416613eed86613cc9565b60005b82811015613f1557848901518255600182019150602085019450602081019050613ef0565b86831015613f325784890151613f2e601f891682613e3b565b8355505b6001600288020188555050505b505050505050565b7f4552433732313a2061646472657373207a65726f206973206e6f74206120766160008201527f6c6964206f776e65720000000000000000000000000000000000000000000000602082015250565b6000613fa3602983612ef5565b9150613fae82613f47565b604082019050919050565b60006020820190508181036000830152613fd281613f96565b9050919050565b7f546f6b656e20646f6573206e6f74206578697374000000000000000000000000600082015250565b600061400f601483612ef5565b915061401a82613fd9565b602082019050919050565b6000602082019050818103600083015261403e81614002565b9050919050565b7f43616c6c6572206973206e6f7420616e2061646d696e206f722074686520746f60008201527f6b656e206f776e65720000000000000000000000000000000000000000000000602082015250565b60006140a1602983612ef5565b91506140ac82614045565b604082019050919050565b600060208201905081810360008301526140d081614094565b9050919050565b7f43616c6c6572206973206e6f7420616e2061646d696e00000000000000000000600082015250565b600061410d601683612ef5565b9150614118826140d7565b602082019050919050565b6000602082019050818103600083015261413c81614100565b9050919050565b7f437572736f72206973206f7574206f6620626f756e6473000000000000000000600082015250565b6000614179601783612ef5565b915061418482614143565b602082019050919050565b600060208201905081810360008301526141a88161416c565b9050919050565b7f506167652073697a65206d7573742062652067726561746572207468616e2030600082015250565b60006141e5602083612ef5565b91506141f0826141af565b602082019050919050565b60006020820190508181036000830152614214816141d8565b9050919050565b7f4e6f20746f6b656e732065786973740000000000000000000000000000000000600082015250565b6000614251600f83612ef5565b915061425c8261421b565b602082019050919050565b6000602082019050818103600083015261428081614244565b9050919050565b7f4e487b7100000000000000000000000000000000000000000000000000000000600052601160045260246000fd5b60006142c182612f9c565b91506142cc83612f9c565b92508282019050808211156142e4576142e3614287565b5b92915050565b60006142f582612f9c565b91507fffffffffffffffffffffffffffffffffffffffffffffffffffffffffffffffff820361432757614326614287565b5b600182019050919050565b600081905092915050565b600061434882612eea565b6143528185614332565b9350614362818560208601612f06565b80840191505092915050565b600061437a828561433d565b9150614386828461433d565b91508190509392505050565b7f4552433732313a207472616e736665722066726f6d20696e636f72726563742060008201527f6f776e6572000000000000000000000000000000000000000000000000000000602082015250565b60006143ee602583612ef5565b91506143f982614392565b604082019050919050565b6000602082019050818103600083015261441d816143e1565b9050919050565b7f4552433732313a207472616e7366657220746f20746865207a65726f2061646460008201527f7265737300000000000000000000000000000000000000000000000000000000602082015250565b6000614480602483612ef5565b915061448b82614424565b604082019050919050565b600060208201905081810360008301526144af81614473565b9050919050565b7f4552433732313a20617070726f766520746f2063616c6c657200000000000000600082015250565b60006144ec601983612ef5565b91506144f7826144b6565b602082019050919050565b6000602082019050818103600083015261451b816144df565b9050919050565b7f4552433732313a207472616e7366657220746f206e6f6e20455243373231526560008201527f63656976657220696d706c656d656e7465720000000000000000000000000000602082015250565b600061457e603283612ef5565b915061458982614522565b604082019050919050565b600060208201905081810360008301526145ad81614571565b9050919050565b7f4e487b7100000000000000000000000000000000000000000000000000000000600052601260045260246000fd5b7f54686973206120736f756c626f756e6420746f6b656e00000000000000000000600082015250565b6000614619601683612ef5565b9150614624826145e3565b602082019050919050565b600060208201905081810360008301526146488161460c565b9050919050565b7f416363657373436f6e74726f6c3a206163636f756e7420000000000000000000600082015250565b6000614685601783614332565b91506146908261464f565b601782019050919050565b7f206973206d697373696e6720726f6c6520000000000000000000000000000000600082015250565b60006146d1601183614332565b91506146dc8261469b565b601182019050919050565b60006146f282614678565b91506146fe828561433d565b9150614709826146c4565b9150614715828461433d565b91508190509392505050565b7f436f756e7465723a2064656372656d656e74206f766572666c6f770000000000600082015250565b6000614757601b83612ef5565b915061476282614721565b602082019050919050565b600060208201905081810360008301526147868161474a565b9050919050565b600081519050919050565b600082825260208201905092915050565b60006147b48261478d565b6147be8185614798565b93506147ce818560208601612f06565b6147d781612f30565b840191505092915050565b60006080820190506147f76000830187613031565b6148046020830186613031565b61481160408301856130c7565b818103606083015261482381846147a9565b905095945050505050565b60008151905061483d81612e5b565b92915050565b60006020828403121561485957614858612e25565b5b60006148678482850161482e565b91505092915050565b600061487b82612f9c565b915061488683612f9c565b925082820261489481612f9c565b915082820484148315176148ab576148aa614287565b5b5092915050565b60006148bd82612f9c565b9150600082036148d0576148cf614287565b5b600182039050919050565b7f537472696e67733a20686578206c656e67746820696e73756666696369656e74600082015250565b6000614911602083612ef5565b915061491c826148db565b602082019050919050565b6000602082019050818103600083015261494081614904565b9050919050565b7f4552433732313a206d696e7420746f20746865207a65726f2061646472657373600082015250565b600061497d602083612ef5565b915061498882614947565b602082019050919050565b600060208201905081810360008301526149ac81614970565b9050919050565b7f4552433732313a20746f6b656e20616c7265616479206d696e74656400000000600082015250565b60006149e9601c83612ef5565b91506149f4826149b3565b602082019050919050565b60006020820190508181036000830152614a18816149dc565b905091905056fea2646970667358221220308cdfe2ffc755454dfb560d41991b4a1be78d5b46d5f808b027cccc2cd4560264736f6c63430008110033",
  "devdoc": {
    "kind": "dev",
    "methods": {
      "approve(address,uint256)": {
        "details": "See {IERC721-approve}."
      },
      "balanceOf(address)": {
        "details": "See {IERC721-balanceOf}."
      },
      "burn(uint256)": {
        "details": "Burns `tokenId`. See {ERC721-_burn}. Requirements: - The caller must own `tokenId` or be an approved operator."
      },
      "getApproved(uint256)": {
        "details": "See {IERC721-getApproved}."
      },
      "getRoleAdmin(bytes32)": {
        "details": "Returns the admin role that controls `role`. See {grantRole} and {revokeRole}. To change a role's admin, use {_setRoleAdmin}."
      },
      "grantRole(bytes32,address)": {
        "details": "Grants `role` to `account`. If `account` had not been already granted `role`, emits a {RoleGranted} event. Requirements: - the caller must have ``role``'s admin role. May emit a {RoleGranted} event."
      },
      "hasRole(bytes32,address)": {
        "details": "Returns `true` if `account` has been granted `role`."
      },
      "isApprovedForAll(address,address)": {
        "details": "See {IERC721-isApprovedForAll}."
      },
      "name()": {
        "details": "See {IERC721Metadata-name}."
      },
      "ownerOf(uint256)": {
        "details": "See {IERC721-ownerOf}."
      },
      "renounceRole(bytes32,address)": {
        "details": "Revokes `role` from the calling account. Roles are often managed via {grantRole} and {revokeRole}: this function's purpose is to provide a mechanism for accounts to lose their privileges if they are compromised (such as when a trusted device is misplaced). If the calling account had been revoked `role`, emits a {RoleRevoked} event. Requirements: - the caller must be `account`. May emit a {RoleRevoked} event."
      },
      "revokeRole(bytes32,address)": {
        "details": "Revokes `role` from `account`. If `account` had been granted `role`, emits a {RoleRevoked} event. Requirements: - the caller must have ``role``'s admin role. May emit a {RoleRevoked} event."
      },
      "safeTransferFrom(address,address,uint256)": {
        "details": "See {IERC721-safeTransferFrom}."
      },
      "safeTransferFrom(address,address,uint256,bytes)": {
        "details": "See {IERC721-safeTransferFrom}."
      },
      "setApprovalForAll(address,bool)": {
        "details": "See {IERC721-setApprovalForAll}."
      },
      "symbol()": {
        "details": "See {IERC721Metadata-symbol}."
      },
      "tokenByIndex(uint256)": {
        "details": "See {IERC721Enumerable-tokenByIndex}."
      },
      "tokenOfOwnerByIndex(address,uint256)": {
        "details": "See {IERC721Enumerable-tokenOfOwnerByIndex}."
      },
      "tokenURI(uint256)": {
        "details": "See {IERC721Metadata-tokenURI}."
      },
      "totalSupply()": {
        "details": "See {IERC721Enumerable-totalSupply}."
      },
      "transferFrom(address,address,uint256)": {
        "details": "See {IERC721-transferFrom}."
      }
    },
    "version": 1
  },
  "userdoc": {
    "kind": "user",
    "methods": {},
    "version": 1
  },
  "storageLayout": {
    "storage": [
      {
        "astId": 414,
        "contract": "contracts/BasicFEVMDALN.sol:Basic_FEVM_DALN",
        "label": "_name",
        "offset": 0,
        "slot": "0",
        "type": "t_string_storage"
      },
      {
        "astId": 416,
        "contract": "contracts/BasicFEVMDALN.sol:Basic_FEVM_DALN",
        "label": "_symbol",
        "offset": 0,
        "slot": "1",
        "type": "t_string_storage"
      },
      {
        "astId": 420,
        "contract": "contracts/BasicFEVMDALN.sol:Basic_FEVM_DALN",
        "label": "_owners",
        "offset": 0,
        "slot": "2",
        "type": "t_mapping(t_uint256,t_address)"
      },
      {
        "astId": 424,
        "contract": "contracts/BasicFEVMDALN.sol:Basic_FEVM_DALN",
        "label": "_balances",
        "offset": 0,
        "slot": "3",
        "type": "t_mapping(t_address,t_uint256)"
      },
      {
        "astId": 428,
        "contract": "contracts/BasicFEVMDALN.sol:Basic_FEVM_DALN",
        "label": "_tokenApprovals",
        "offset": 0,
        "slot": "4",
        "type": "t_mapping(t_uint256,t_address)"
      },
      {
        "astId": 434,
        "contract": "contracts/BasicFEVMDALN.sol:Basic_FEVM_DALN",
        "label": "_operatorApprovals",
        "offset": 0,
        "slot": "5",
        "type": "t_mapping(t_address,t_mapping(t_address,t_bool))"
      },
      {
        "astId": 1512,
        "contract": "contracts/BasicFEVMDALN.sol:Basic_FEVM_DALN",
        "label": "_ownedTokens",
        "offset": 0,
        "slot": "6",
        "type": "t_mapping(t_address,t_mapping(t_uint256,t_uint256))"
      },
      {
        "astId": 1516,
        "contract": "contracts/BasicFEVMDALN.sol:Basic_FEVM_DALN",
        "label": "_ownedTokensIndex",
        "offset": 0,
        "slot": "7",
        "type": "t_mapping(t_uint256,t_uint256)"
      },
      {
        "astId": 1519,
        "contract": "contracts/BasicFEVMDALN.sol:Basic_FEVM_DALN",
        "label": "_allTokens",
        "offset": 0,
        "slot": "8",
        "type": "t_array(t_uint256)dyn_storage"
      },
      {
        "astId": 1523,
        "contract": "contracts/BasicFEVMDALN.sol:Basic_FEVM_DALN",
        "label": "_allTokensIndex",
        "offset": 0,
        "slot": "9",
        "type": "t_mapping(t_uint256,t_uint256)"
      },
      {
        "astId": 24,
        "contract": "contracts/BasicFEVMDALN.sol:Basic_FEVM_DALN",
        "label": "_roles",
        "offset": 0,
        "slot": "10",
        "type": "t_mapping(t_bytes32,t_struct(RoleData)19_storage)"
      },
      {
        "astId": 3445,
        "contract": "contracts/BasicFEVMDALN.sol:Basic_FEVM_DALN",
        "label": "_tokenIdTracker",
        "offset": 0,
        "slot": "11",
        "type": "t_struct(Counter)2267_storage"
      },
      {
        "astId": 3448,
        "contract": "contracts/BasicFEVMDALN.sol:Basic_FEVM_DALN",
        "label": "_activeTokensCount",
        "offset": 0,
        "slot": "12",
        "type": "t_struct(Counter)2267_storage"
      },
      {
        "astId": 3453,
        "contract": "contracts/BasicFEVMDALN.sol:Basic_FEVM_DALN",
        "label": "_tokenInfos",
        "offset": 0,
        "slot": "13",
        "type": "t_mapping(t_uint256,t_struct(TokenInfo)3442_storage)"
      }
    ],
    "types": {
      "t_address": {
        "encoding": "inplace",
        "label": "address",
        "numberOfBytes": "20"
      },
      "t_array(t_uint256)dyn_storage": {
        "base": "t_uint256",
        "encoding": "dynamic_array",
        "label": "uint256[]",
        "numberOfBytes": "32"
      },
      "t_bool": {
        "encoding": "inplace",
        "label": "bool",
        "numberOfBytes": "1"
      },
      "t_bytes32": {
        "encoding": "inplace",
        "label": "bytes32",
        "numberOfBytes": "32"
      },
      "t_mapping(t_address,t_bool)": {
        "encoding": "mapping",
        "key": "t_address",
        "label": "mapping(address => bool)",
        "numberOfBytes": "32",
        "value": "t_bool"
      },
      "t_mapping(t_address,t_mapping(t_address,t_bool))": {
        "encoding": "mapping",
        "key": "t_address",
        "label": "mapping(address => mapping(address => bool))",
        "numberOfBytes": "32",
        "value": "t_mapping(t_address,t_bool)"
      },
      "t_mapping(t_address,t_mapping(t_uint256,t_uint256))": {
        "encoding": "mapping",
        "key": "t_address",
        "label": "mapping(address => mapping(uint256 => uint256))",
        "numberOfBytes": "32",
        "value": "t_mapping(t_uint256,t_uint256)"
      },
      "t_mapping(t_address,t_uint256)": {
        "encoding": "mapping",
        "key": "t_address",
        "label": "mapping(address => uint256)",
        "numberOfBytes": "32",
        "value": "t_uint256"
      },
      "t_mapping(t_bytes32,t_struct(RoleData)19_storage)": {
        "encoding": "mapping",
        "key": "t_bytes32",
        "label": "mapping(bytes32 => struct AccessControl.RoleData)",
        "numberOfBytes": "32",
        "value": "t_struct(RoleData)19_storage"
      },
      "t_mapping(t_uint256,t_address)": {
        "encoding": "mapping",
        "key": "t_uint256",
        "label": "mapping(uint256 => address)",
        "numberOfBytes": "32",
        "value": "t_address"
      },
      "t_mapping(t_uint256,t_struct(TokenInfo)3442_storage)": {
        "encoding": "mapping",
        "key": "t_uint256",
        "label": "mapping(uint256 => struct Basic_FEVM_DALN.TokenInfo)",
        "numberOfBytes": "32",
        "value": "t_struct(TokenInfo)3442_storage"
      },
      "t_mapping(t_uint256,t_uint256)": {
        "encoding": "mapping",
        "key": "t_uint256",
        "label": "mapping(uint256 => uint256)",
        "numberOfBytes": "32",
        "value": "t_uint256"
      },
      "t_string_storage": {
        "encoding": "bytes",
        "label": "string",
        "numberOfBytes": "32"
      },
      "t_struct(Counter)2267_storage": {
        "encoding": "inplace",
        "label": "struct Counters.Counter",
        "members": [
          {
            "astId": 2266,
            "contract": "contracts/BasicFEVMDALN.sol:Basic_FEVM_DALN",
            "label": "_value",
            "offset": 0,
            "slot": "0",
            "type": "t_uint256"
          }
        ],
        "numberOfBytes": "32"
      },
      "t_struct(RoleData)19_storage": {
        "encoding": "inplace",
        "label": "struct AccessControl.RoleData",
        "members": [
          {
            "astId": 16,
            "contract": "contracts/BasicFEVMDALN.sol:Basic_FEVM_DALN",
            "label": "members",
            "offset": 0,
            "slot": "0",
            "type": "t_mapping(t_address,t_bool)"
          },
          {
            "astId": 18,
            "contract": "contracts/BasicFEVMDALN.sol:Basic_FEVM_DALN",
            "label": "adminRole",
            "offset": 0,
            "slot": "1",
            "type": "t_bytes32"
          }
        ],
        "numberOfBytes": "64"
      },
      "t_struct(TokenInfo)3442_storage": {
        "encoding": "inplace",
        "label": "struct Basic_FEVM_DALN.TokenInfo",
        "members": [
          {
            "astId": 3437,
            "contract": "contracts/BasicFEVMDALN.sol:Basic_FEVM_DALN",
            "label": "id",
            "offset": 0,
            "slot": "0",
            "type": "t_uint256"
          },
          {
            "astId": 3439,
            "contract": "contracts/BasicFEVMDALN.sol:Basic_FEVM_DALN",
            "label": "cid",
            "offset": 0,
            "slot": "1",
            "type": "t_string_storage"
          },
          {
            "astId": 3441,
            "contract": "contracts/BasicFEVMDALN.sol:Basic_FEVM_DALN",
            "label": "owner",
            "offset": 0,
            "slot": "2",
            "type": "t_address"
          }
        ],
        "numberOfBytes": "96"
      },
      "t_uint256": {
        "encoding": "inplace",
        "label": "uint256",
        "numberOfBytes": "32"
      }
    }
  }
}